{
    "contractName": "Lottery",
    "abi": [
        {
            "inputs": [
                {
                    "internalType": "uint256",
                    "name": "_betPrice",
                    "type": "uint256"
                },
                {
                    "internalType": "uint256",
                    "name": "_betFree",
                    "type": "uint256"
                }
            ],
            "stateMutability": "nonpayable",
            "type": "constructor"
        },
        {
            "anonymous": false,
            "inputs": [
                {
                    "indexed": true,
                    "internalType": "address",
                    "name": "previousOwner",
                    "type": "address"
                },
                {
                    "indexed": true,
                    "internalType": "address",
                    "name": "newOwner",
                    "type": "address"
                }
            ],
            "name": "OwnershipTransferred",
            "type": "event"
        },
        {
            "inputs": [],
            "name": "betsOpen",
            "outputs": [
                {
                    "internalType": "bool",
                    "name": "",
                    "type": "bool"
                }
            ],
            "stateMutability": "view",
            "type": "function"
        },
        {
            "inputs": [],
            "name": "closingTime",
            "outputs": [
                {
                    "internalType": "uint256",
                    "name": "",
                    "type": "uint256"
                }
            ],
            "stateMutability": "view",
            "type": "function"
        },
        {
            "inputs": [
                {
                    "internalType": "uint256",
                    "name": "_closingTime",
                    "type": "uint256"
                }
            ],
            "name": "openBets",
            "outputs": [],
            "stateMutability": "nonpayable",
            "type": "function"
        },
        {
            "inputs": [],
            "name": "owner",
            "outputs": [
                {
                    "internalType": "address",
                    "name": "",
                    "type": "address"
                }
            ],
            "stateMutability": "view",
            "type": "function"
        },
        {
            "inputs": [],
            "name": "renounceOwnership",
            "outputs": [],
            "stateMutability": "nonpayable",
            "type": "function"
        },
        {
            "inputs": [
                {
                    "internalType": "address",
                    "name": "newOwner",
                    "type": "address"
                }
            ],
            "name": "transferOwnership",
            "outputs": [],
            "stateMutability": "nonpayable",
            "type": "function"
        }
    ],
    "bytecode": "608060405234801561001057600080fd5b506040516103cf3803806103cf83398101604081905261002f9161008f565b6100383361003f565b50506100b3565b600080546001600160a01b038381166001600160a01b0319831681178455604051919092169283917f8be0079c531659141344cd1fd0a4f28419497f9722a3daafe3b4186f6b6457e09190a35050565b600080604083850312156100a257600080fd5b505080516020909101519092909150565b61030d806100c26000396000f3fe608060405234801561001057600080fd5b50600436106100625760003560e01c80634b6753bc14610067578063715018a6146100835780638da5cb5b1461008d578063990a49f5146100a8578063d1b258ff146100bb578063f2fde38b146100d8575b600080fd5b61007060015481565b6040519081526020015b60405180910390f35b61008b6100eb565b005b6000546040516001600160a01b03909116815260200161007a565b61008b6100b636600461028e565b6100ff565b6002546100c89060ff1681565b604051901515815260200161007a565b61008b6100e63660046102a7565b61016b565b6100f36101e4565b6100fd600061023e565b565b6101076101e4565b4281116101665760405162461bcd60e51b815260206004820152602260248201527f436c6f73696e672074696d65206d75737420626520696e207468652066757475604482015261726560f01b60648201526084015b60405180910390fd5b600155565b6101736101e4565b6001600160a01b0381166101d85760405162461bcd60e51b815260206004820152602660248201527f4f776e61626c653a206e6577206f776e657220697320746865207a65726f206160448201526564647265737360d01b606482015260840161015d565b6101e18161023e565b50565b6000546001600160a01b031633146100fd5760405162461bcd60e51b815260206004820181905260248201527f4f776e61626c653a2063616c6c6572206973206e6f7420746865206f776e6572604482015260640161015d565b600080546001600160a01b038381166001600160a01b0319831681178455604051919092169283917f8be0079c531659141344cd1fd0a4f28419497f9722a3daafe3b4186f6b6457e09190a35050565b6000602082840312156102a057600080fd5b5035919050565b6000602082840312156102b957600080fd5b81356001600160a01b03811681146102d057600080fd5b939250505056fea264697066735822122081b674aac6e7323114b28afbd229bac171d0fa052b67631c9f7b70d9a7cd2d1964736f6c63430008100033",
    "sourcePath": "c:/Users/Nikos/Desktop/SolidityBootcamp/Encode-Solidity-Bootcamp-Weekend-Projects/weekend-project-5/lottery-dapp/contracts/Lottery.sol",
    "compiler": {
        "name": "solc",
        "version": "0.8.16+commit.07a7930e"
    },
    "functionHashes": {
        "betsOpen()": "d1b258ff",
        "closingTime()": "4b6753bc",
        "openBets(uint256)": "990a49f5",
        "owner()": "8da5cb5b",
        "renounceOwnership()": "715018a6",
        "transferOwnership(address)": "f2fde38b"
    },
    "gasEstimates": {
        "creation": {
            "codeDepositCost": "156200",
            "executionCost": "infinite",
            "totalCost": "infinite"
        },
        "external": {
            "betsOpen()": "2376",
            "closingTime()": "2262",
            "openBets(uint256)": "24554",
            "owner()": "2323",
            "renounceOwnership()": "infinite",
            "transferOwnership(address)": "28386"
        }
    }
}