{
    "contractName": "Payroll",
    "abi": [
        {
            "inputs": [
                {
                    "internalType": "string",
                    "name": "tokenName",
                    "type": "string"
                },
                {
                    "internalType": "string",
                    "name": "tokenSymbol",
                    "type": "string"
                },
                {
                    "internalType": "uint256",
                    "name": "initialCapital",
                    "type": "uint256"
                }
            ],
            "stateMutability": "nonpayable",
            "type": "constructor"
        },
        {
            "anonymous": false,
            "inputs": [
                {
                    "indexed": false,
                    "internalType": "uint256",
                    "name": "id",
                    "type": "uint256"
                },
                {
                    "indexed": false,
                    "internalType": "address",
                    "name": "from",
                    "type": "address"
                },
                {
                    "indexed": false,
                    "internalType": "uint256",
                    "name": "totalSalary",
                    "type": "uint256"
                },
                {
                    "indexed": false,
                    "internalType": "uint256",
                    "name": "timestamp",
                    "type": "uint256"
                }
            ],
            "name": "Paid",
            "type": "event"
        },
        {
            "stateMutability": "nonpayable",
            "type": "fallback"
        },
        {
            "inputs": [
                {
                    "internalType": "address",
                    "name": "employeeAddress",
                    "type": "address"
                },
                {
                    "internalType": "uint256",
                    "name": "salary",
                    "type": "uint256"
                }
            ],
            "name": "addEmployee",
            "outputs": [
                {
                    "internalType": "bool",
                    "name": "",
                    "type": "bool"
                }
            ],
            "stateMutability": "nonpayable",
            "type": "function"
        },
        {
            "inputs": [],
            "name": "companyAcc",
            "outputs": [
                {
                    "internalType": "address",
                    "name": "",
                    "type": "address"
                }
            ],
            "stateMutability": "view",
            "type": "function"
        },
        {
            "inputs": [],
            "name": "getEmployees",
            "outputs": [
                {
                    "components": [
                        {
                            "internalType": "uint256",
                            "name": "id",
                            "type": "uint256"
                        },
                        {
                            "internalType": "address",
                            "name": "paymentAddress",
                            "type": "address"
                        },
                        {
                            "internalType": "uint256",
                            "name": "salary",
                            "type": "uint256"
                        },
                        {
                            "internalType": "uint256",
                            "name": "timestamp",
                            "type": "uint256"
                        }
                    ],
                    "internalType": "struct Payroll.EmployeeStruct[]",
                    "name": "",
                    "type": "tuple[]"
                }
            ],
            "stateMutability": "view",
            "type": "function"
        },
        {
            "inputs": [],
            "name": "paymentToken",
            "outputs": [
                {
                    "internalType": "contract PayrollToken",
                    "name": "",
                    "type": "address"
                }
            ],
            "stateMutability": "view",
            "type": "function"
        },
        {
            "inputs": [
                {
                    "internalType": "address",
                    "name": "employeeAddress",
                    "type": "address"
                }
            ],
            "name": "removeEmployee",
            "outputs": [
                {
                    "internalType": "bool",
                    "name": "",
                    "type": "bool"
                }
            ],
            "stateMutability": "nonpayable",
            "type": "function"
        },
        {
            "inputs": [],
            "name": "tokenBalance",
            "outputs": [
                {
                    "internalType": "uint256",
                    "name": "",
                    "type": "uint256"
                }
            ],
            "stateMutability": "view",
            "type": "function"
        },
        {
            "inputs": [],
            "name": "totalEmployees",
            "outputs": [
                {
                    "internalType": "uint256",
                    "name": "",
                    "type": "uint256"
                }
            ],
            "stateMutability": "view",
            "type": "function"
        },
        {
            "inputs": [],
            "name": "totalSalary",
            "outputs": [
                {
                    "internalType": "uint256",
                    "name": "",
                    "type": "uint256"
                }
            ],
            "stateMutability": "view",
            "type": "function"
        },
        {
            "stateMutability": "payable",
            "type": "receive"
        }
    ],
    "bytecode": "6080604052600060025560006003553480156200001b57600080fd5b506040516200207e3803806200207e8339810160408190526200003e91620001e1565b82826040516200004e9062000106565b6200005b92919062000282565b604051809103906000f08015801562000078573d6000803e3d6000fd5b50600080546001600160a01b03929092166001600160a01b031992831681179091556001805490921633179091556040516340c10f1960e01b8152306004820152602481018390526340c10f1990604401600060405180830381600087803b158015620000e457600080fd5b505af1158015620000f9573d6000803e3d6000fd5b50505050505050620002b4565b6115dd8062000aa183390190565b634e487b7160e01b600052604160045260246000fd5b60005b83811015620001475781810151838201526020016200012d565b50506000910152565b600082601f8301126200016257600080fd5b81516001600160401b03808211156200017f576200017f62000114565b604051601f8301601f19908116603f01168101908282118183101715620001aa57620001aa62000114565b81604052838152866020858801011115620001c457600080fd5b620001d78460208301602089016200012a565b9695505050505050565b600080600060608486031215620001f757600080fd5b83516001600160401b03808211156200020f57600080fd5b6200021d8783880162000150565b945060208601519150808211156200023457600080fd5b50620002438682870162000150565b925050604084015190509250925092565b600081518084526200026e8160208601602086016200012a565b601f01601f19169290920160200192915050565b60408152600062000297604083018562000254565b8281036020840152620002ab818562000254565b95945050505050565b6107dd80620002c46000396000f3fe60806040526004361061007f5760003560e01c80639e1a4d191161004e5780639e1a4d191461012d578063d108177a14610142578063d36acc3914610172578063e7fd9a131461019257610086565b80632e46eb1d146100945780633013ce29146100bd5780634abefa36146100f557806352b9b9731461011757610086565b3661008657005b34801561009257600080fd5b005b3480156100a057600080fd5b506100aa60035481565b6040519081526020015b60405180910390f35b3480156100c957600080fd5b506000546100dd906001600160a01b031681565b6040516001600160a01b0390911681526020016100b4565b34801561010157600080fd5b5061010a6101b2565b6040516100b49190610626565b34801561012357600080fd5b506100aa60025481565b34801561013957600080fd5b506100aa61023c565b34801561014e57600080fd5b5061016261015d3660046106aa565b6102e3565b60405190151581526020016100b4565b34801561017e57600080fd5b506001546100dd906001600160a01b031681565b34801561019e57600080fd5b506101626101ad3660046106cc565b610406565b60606005805480602002602001604051908101604052809291908181526020016000905b828210156102335760008481526020908190206040805160808101825260048602909201805483526001808201546001600160a01b03168486015260028201549284019290925260030154606083015290835290920191016101d6565b50505050905090565b6001546000906001600160a01b031633146102725760405162461bcd60e51b8152600401610269906106f6565b60405180910390fd5b6000546040516370a0823160e01b81523060048201526001600160a01b03909116906370a0823190602401602060405180830381865afa1580156102ba573d6000803e3d6000fd5b505050506040513d601f19601f820116820180604052508101906102de9190610723565b905090565b6001546000906001600160a01b031633146103105760405162461bcd60e51b8152600401610269906106f6565b60005b6005548110156103fb57826001600160a01b03166005828154811061033a5761033a61073c565b60009182526020909120600160049092020101546001600160a01b0316036103e9576005818154811061036f5761036f61073c565b906000526020600020906004020160020154600360008282546103929190610768565b909155505060058054829081106103ab576103ab61073c565b600091825260208220600490910201818155600180820180546001600160a01b03191690556002820183905560039091019190915591506104019050565b806103f38161077b565b915050610313565b50600090505b919050565b6001546000906001600160a01b031633146104335760405162461bcd60e51b8152600401610269906106f6565b6000821161047c5760405162461bcd60e51b815260206004820152601660248201527553616c6172792063616e6e6f74206265207a65726f2160501b6044820152606401610269565b6001600160a01b03831660009081526004602052604090205460ff16156104e55760405162461bcd60e51b815260206004820152601c60248201527f456d706c6f79656520616c726561647920696e20706179726f6c6c21000000006044820152606401610269565b600280549060006104f58361077b565b9190505550816003600082825461050c9190610794565b9091555050506001600160a01b038083166000818152600460208181526040808420805460ff1916600190811790915581516080810183526002548152928301958652908201878152426060840190815260058054808501825596529251949093027f036b6384b5eca791c62761152d0c79bb0604c104a5fb6f4eb0703f3154bb3db081019490945593517f036b6384b5eca791c62761152d0c79bb0604c104a5fb6f4eb0703f3154bb3db184018054919096166001600160a01b031990911617909455517f036b6384b5eca791c62761152d0c79bb0604c104a5fb6f4eb0703f3154bb3db282015591517f036b6384b5eca791c62761152d0c79bb0604c104a5fb6f4eb0703f3154bb3db3909201919091555b92915050565b602080825282518282018190526000919060409081850190868401855b8281101561068657815180518552868101516001600160a01b03168786015285810151868601526060908101519085015260809093019290850190600101610643565b5091979650505050505050565b80356001600160a01b038116811461040157600080fd5b6000602082840312156106bc57600080fd5b6106c582610693565b9392505050565b600080604083850312156106df57600080fd5b6106e883610693565b946020939093013593505050565b6020808252601390820152724f776e6572207265736572766564206f6e6c7960681b604082015260600190565b60006020828403121561073557600080fd5b5051919050565b634e487b7160e01b600052603260045260246000fd5b634e487b7160e01b600052601160045260246000fd5b8181038181111561062057610620610752565b60006001820161078d5761078d610752565b5060010190565b808201808211156106205761062061075256fea26469706673582212209cb7f2282fd54d8f2ab9e1803eb34feaf4e5552761bda02705e80a6249af6a0964736f6c6343000810003360806040523480156200001157600080fd5b50604051620015dd380380620015dd833981016040819052620000349162000203565b81816003620000448382620002fc565b506004620000538282620002fc565b50620000659150600090503362000099565b620000917f9f2df0fed2c77648de5860a4cc508cd0818c85b8b8a1ab4ceeef8d981c8956a63362000099565b5050620003c8565b60008281526005602090815260408083206001600160a01b038516845290915290205460ff166200013a5760008281526005602090815260408083206001600160a01b03851684529091529020805460ff19166001179055620000f93390565b6001600160a01b0316816001600160a01b0316837f2f8788117e7eff1d82e926ec794901d17c78024a50270940304540a733656f0d60405160405180910390a45b5050565b634e487b7160e01b600052604160045260246000fd5b600082601f8301126200016657600080fd5b81516001600160401b03808211156200018357620001836200013e565b604051601f8301601f19908116603f01168101908282118183101715620001ae57620001ae6200013e565b81604052838152602092508683858801011115620001cb57600080fd5b600091505b83821015620001ef5785820183015181830184015290820190620001d0565b600093810190920192909252949350505050565b600080604083850312156200021757600080fd5b82516001600160401b03808211156200022f57600080fd5b6200023d8683870162000154565b935060208501519150808211156200025457600080fd5b50620002638582860162000154565b9150509250929050565b600181811c908216806200028257607f821691505b602082108103620002a357634e487b7160e01b600052602260045260246000fd5b50919050565b601f821115620002f757600081815260208120601f850160051c81016020861015620002d25750805b601f850160051c820191505b81811015620002f357828155600101620002de565b5050505b505050565b81516001600160401b038111156200031857620003186200013e565b62000330816200032984546200026d565b84620002a9565b602080601f8311600181146200036857600084156200034f5750858301515b600019600386901b1c1916600185901b178555620002f3565b600085815260208120601f198616915b82811015620003995788860151825594840194600190910190840162000378565b5085821015620003b85787850151600019600388901b60f8161c191681555b5050505050600190811b01905550565b61120580620003d86000396000f3fe608060405234801561001057600080fd5b50600436106101425760003560e01c806342966c68116100b8578063a217fddf1161007c578063a217fddf146102a6578063a457c2d7146102ae578063a9059cbb146102c1578063d5391393146102d4578063d547741f146102fb578063dd62ed3e1461030e57600080fd5b806342966c681461023c57806370a082311461024f57806379cc67901461027857806391d148541461028b57806395d89b411461029e57600080fd5b8063248a9ca31161010a578063248a9ca3146101bc5780632f2ff15d146101df578063313ce567146101f457806336568abe14610203578063395093511461021657806340c10f191461022957600080fd5b806301ffc9a71461014757806306fdde031461016f578063095ea7b31461018457806318160ddd1461019757806323b872dd146101a9575b600080fd5b61015a610155366004610ef5565b610321565b60405190151581526020015b60405180910390f35b610177610358565b6040516101669190610f43565b61015a610192366004610f92565b6103ea565b6002545b604051908152602001610166565b61015a6101b7366004610fbc565b610402565b61019b6101ca366004610ff8565b60009081526005602052604090206001015490565b6101f26101ed366004611011565b610426565b005b60405160128152602001610166565b6101f2610211366004611011565b610450565b61015a610224366004610f92565b6104d3565b6101f2610237366004610f92565b6104f5565b6101f261024a366004610ff8565b610529565b61019b61025d36600461103d565b6001600160a01b031660009081526020819052604090205490565b6101f2610286366004610f92565b610536565b61015a610299366004611011565b61054b565b610177610576565b61019b600081565b61015a6102bc366004610f92565b610585565b61015a6102cf366004610f92565b610600565b61019b7f9f2df0fed2c77648de5860a4cc508cd0818c85b8b8a1ab4ceeef8d981c8956a681565b6101f2610309366004611011565b61060e565b61019b61031c366004611058565b610633565b60006001600160e01b03198216637965db0b60e01b148061035257506301ffc9a760e01b6001600160e01b03198316145b92915050565b60606003805461036790611082565b80601f016020809104026020016040519081016040528092919081815260200182805461039390611082565b80156103e05780601f106103b5576101008083540402835291602001916103e0565b820191906000526020600020905b8154815290600101906020018083116103c357829003601f168201915b5050505050905090565b6000336103f881858561065e565b5060019392505050565b600033610410858285610782565b61041b8585856107fc565b506001949350505050565b600082815260056020526040902060010154610441816109ca565b61044b83836109d4565b505050565b6001600160a01b03811633146104c55760405162461bcd60e51b815260206004820152602f60248201527f416363657373436f6e74726f6c3a2063616e206f6e6c792072656e6f756e636560448201526e103937b632b9903337b91039b2b63360891b60648201526084015b60405180910390fd5b6104cf8282610a5a565b5050565b6000336103f88185856104e68383610633565b6104f091906110d2565b61065e565b7f9f2df0fed2c77648de5860a4cc508cd0818c85b8b8a1ab4ceeef8d981c8956a661051f816109ca565b61044b8383610ac1565b6105333382610ba0565b50565b610541823383610782565b6104cf8282610ba0565b60009182526005602090815260408084206001600160a01b0393909316845291905290205460ff1690565b60606004805461036790611082565b600033816105938286610633565b9050838110156105f35760405162461bcd60e51b815260206004820152602560248201527f45524332303a2064656372656173656420616c6c6f77616e63652062656c6f77604482015264207a65726f60d81b60648201526084016104bc565b61041b828686840361065e565b6000336103f88185856107fc565b600082815260056020526040902060010154610629816109ca565b61044b8383610a5a565b6001600160a01b03918216600090815260016020908152604080832093909416825291909152205490565b6001600160a01b0383166106c05760405162461bcd60e51b8152602060048201526024808201527f45524332303a20617070726f76652066726f6d20746865207a65726f206164646044820152637265737360e01b60648201526084016104bc565b6001600160a01b0382166107215760405162461bcd60e51b815260206004820152602260248201527f45524332303a20617070726f766520746f20746865207a65726f206164647265604482015261737360f01b60648201526084016104bc565b6001600160a01b0383811660008181526001602090815260408083209487168084529482529182902085905590518481527f8c5be1e5ebec7d5bd14f71427d1e84f3dd0314c0f7b2291e5b200ac8c7c3b925910160405180910390a3505050565b600061078e8484610633565b905060001981146107f657818110156107e95760405162461bcd60e51b815260206004820152601d60248201527f45524332303a20696e73756666696369656e7420616c6c6f77616e636500000060448201526064016104bc565b6107f6848484840361065e565b50505050565b6001600160a01b0383166108605760405162461bcd60e51b815260206004820152602560248201527f45524332303a207472616e736665722066726f6d20746865207a65726f206164604482015264647265737360d81b60648201526084016104bc565b6001600160a01b0382166108c25760405162461bcd60e51b815260206004820152602360248201527f45524332303a207472616e7366657220746f20746865207a65726f206164647260448201526265737360e81b60648201526084016104bc565b6001600160a01b0383166000908152602081905260409020548181101561093a5760405162461bcd60e51b815260206004820152602660248201527f45524332303a207472616e7366657220616d6f756e7420657863656564732062604482015265616c616e636560d01b60648201526084016104bc565b6001600160a01b038085166000908152602081905260408082208585039055918516815290812080548492906109719084906110d2565b92505081905550826001600160a01b0316846001600160a01b03167fddf252ad1be2c89b69c2b068fc378daa952ba7f163c4a11628f55a4df523b3ef846040516109bd91815260200190565b60405180910390a36107f6565b6105338133610cee565b6109de828261054b565b6104cf5760008281526005602090815260408083206001600160a01b03851684529091529020805460ff19166001179055610a163390565b6001600160a01b0316816001600160a01b0316837f2f8788117e7eff1d82e926ec794901d17c78024a50270940304540a733656f0d60405160405180910390a45050565b610a64828261054b565b156104cf5760008281526005602090815260408083206001600160a01b0385168085529252808320805460ff1916905551339285917ff6391f5c32d9c69d2a47ea670b442974b53935d1edc7fd64eb21e047a839171b9190a45050565b6001600160a01b038216610b175760405162461bcd60e51b815260206004820152601f60248201527f45524332303a206d696e7420746f20746865207a65726f20616464726573730060448201526064016104bc565b8060026000828254610b2991906110d2565b90915550506001600160a01b03821660009081526020819052604081208054839290610b569084906110d2565b90915550506040518181526001600160a01b038316906000907fddf252ad1be2c89b69c2b068fc378daa952ba7f163c4a11628f55a4df523b3ef9060200160405180910390a35050565b6001600160a01b038216610c005760405162461bcd60e51b815260206004820152602160248201527f45524332303a206275726e2066726f6d20746865207a65726f206164647265736044820152607360f81b60648201526084016104bc565b6001600160a01b03821660009081526020819052604090205481811015610c745760405162461bcd60e51b815260206004820152602260248201527f45524332303a206275726e20616d6f756e7420657863656564732062616c616e604482015261636560f01b60648201526084016104bc565b6001600160a01b0383166000908152602081905260408120838303905560028054849290610ca39084906110e5565b90915550506040518281526000906001600160a01b038516907fddf252ad1be2c89b69c2b068fc378daa952ba7f163c4a11628f55a4df523b3ef9060200160405180910390a3505050565b610cf8828261054b565b6104cf57610d10816001600160a01b03166014610d52565b610d1b836020610d52565b604051602001610d2c9291906110f8565b60408051601f198184030181529082905262461bcd60e51b82526104bc91600401610f43565b60606000610d6183600261116d565b610d6c9060026110d2565b67ffffffffffffffff811115610d8457610d8461118c565b6040519080825280601f01601f191660200182016040528015610dae576020820181803683370190505b509050600360fc1b81600081518110610dc957610dc96111a2565b60200101906001600160f81b031916908160001a905350600f60fb1b81600181518110610df857610df86111a2565b60200101906001600160f81b031916908160001a9053506000610e1c84600261116d565b610e279060016110d2565b90505b6001811115610e9f576f181899199a1a9b1b9c1cb0b131b232b360811b85600f1660108110610e5b57610e5b6111a2565b1a60f81b828281518110610e7157610e716111a2565b60200101906001600160f81b031916908160001a90535060049490941c93610e98816111b8565b9050610e2a565b508315610eee5760405162461bcd60e51b815260206004820181905260248201527f537472696e67733a20686578206c656e67746820696e73756666696369656e7460448201526064016104bc565b9392505050565b600060208284031215610f0757600080fd5b81356001600160e01b031981168114610eee57600080fd5b60005b83811015610f3a578181015183820152602001610f22565b50506000910152565b6020815260008251806020840152610f62816040850160208701610f1f565b601f01601f19169190910160400192915050565b80356001600160a01b0381168114610f8d57600080fd5b919050565b60008060408385031215610fa557600080fd5b610fae83610f76565b946020939093013593505050565b600080600060608486031215610fd157600080fd5b610fda84610f76565b9250610fe860208501610f76565b9150604084013590509250925092565b60006020828403121561100a57600080fd5b5035919050565b6000806040838503121561102457600080fd5b8235915061103460208401610f76565b90509250929050565b60006020828403121561104f57600080fd5b610eee82610f76565b6000806040838503121561106b57600080fd5b61107483610f76565b915061103460208401610f76565b600181811c9082168061109657607f821691505b6020821081036110b657634e487b7160e01b600052602260045260246000fd5b50919050565b634e487b7160e01b600052601160045260246000fd5b80820180821115610352576103526110bc565b81810381811115610352576103526110bc565b7f416363657373436f6e74726f6c3a206163636f756e7420000000000000000000815260008351611130816017850160208801610f1f565b7001034b99036b4b9b9b4b733903937b6329607d1b6017918401918201528351611161816028840160208801610f1f565b01602801949350505050565b6000816000190483118215151615611187576111876110bc565b500290565b634e487b7160e01b600052604160045260246000fd5b634e487b7160e01b600052603260045260246000fd5b6000816111c7576111c76110bc565b50600019019056fea264697066735822122087d6efba73f31a20b069294e4ebd0d401f10592ec1aa4cdca4217fae1ce571ff64736f6c63430008100033",
    "sourcePath": "c:/Users/Nikos/Desktop/SolidityBootcamp/Encode-Solidity-Bootcamp-Weekend-Projects/team-project/payroll/contracts/Payroll.sol",
    "compiler": {
        "name": "solc",
        "version": "0.8.16+commit.07a7930e"
    },
    "functionHashes": {
        "addEmployee(address,uint256)": "e7fd9a13",
        "companyAcc()": "d36acc39",
        "getEmployees()": "4abefa36",
        "paymentToken()": "3013ce29",
        "removeEmployee(address)": "d108177a",
        "tokenBalance()": "9e1a4d19",
        "totalEmployees()": "52b9b973",
        "totalSalary()": "2e46eb1d"
    },
    "gasEstimates": {
        "creation": {
            "codeDepositCost": "402600",
            "executionCost": "infinite",
            "totalCost": "infinite"
        },
        "external": {
            "": "201",
            "addEmployee(address,uint256)": "infinite",
            "companyAcc()": "2381",
            "getEmployees()": "infinite",
            "paymentToken()": "2360",
            "removeEmployee(address)": "infinite",
            "tokenBalance()": "infinite",
            "totalEmployees()": "2351",
            "totalSalary()": "2285"
        },
        "internal": {
            "payTo(address,uint256)": "infinite"
        }
    }
}