{
    "contractName": "PayrollToken",
    "abi": [
        {
            "inputs": [
                {
                    "internalType": "string",
                    "name": "name",
                    "type": "string"
                },
                {
                    "internalType": "string",
                    "name": "symbol",
                    "type": "string"
                }
            ],
            "stateMutability": "nonpayable",
            "type": "constructor"
        },
        {
            "anonymous": false,
            "inputs": [
                {
                    "indexed": true,
                    "internalType": "address",
                    "name": "owner",
                    "type": "address"
                },
                {
                    "indexed": true,
                    "internalType": "address",
                    "name": "spender",
                    "type": "address"
                },
                {
                    "indexed": false,
                    "internalType": "uint256",
                    "name": "value",
                    "type": "uint256"
                }
            ],
            "name": "Approval",
            "type": "event"
        },
        {
            "anonymous": false,
            "inputs": [
                {
                    "indexed": true,
                    "internalType": "bytes32",
                    "name": "role",
                    "type": "bytes32"
                },
                {
                    "indexed": true,
                    "internalType": "bytes32",
                    "name": "previousAdminRole",
                    "type": "bytes32"
                },
                {
                    "indexed": true,
                    "internalType": "bytes32",
                    "name": "newAdminRole",
                    "type": "bytes32"
                }
            ],
            "name": "RoleAdminChanged",
            "type": "event"
        },
        {
            "anonymous": false,
            "inputs": [
                {
                    "indexed": true,
                    "internalType": "bytes32",
                    "name": "role",
                    "type": "bytes32"
                },
                {
                    "indexed": true,
                    "internalType": "address",
                    "name": "account",
                    "type": "address"
                },
                {
                    "indexed": true,
                    "internalType": "address",
                    "name": "sender",
                    "type": "address"
                }
            ],
            "name": "RoleGranted",
            "type": "event"
        },
        {
            "anonymous": false,
            "inputs": [
                {
                    "indexed": true,
                    "internalType": "bytes32",
                    "name": "role",
                    "type": "bytes32"
                },
                {
                    "indexed": true,
                    "internalType": "address",
                    "name": "account",
                    "type": "address"
                },
                {
                    "indexed": true,
                    "internalType": "address",
                    "name": "sender",
                    "type": "address"
                }
            ],
            "name": "RoleRevoked",
            "type": "event"
        },
        {
            "anonymous": false,
            "inputs": [
                {
                    "indexed": true,
                    "internalType": "address",
                    "name": "from",
                    "type": "address"
                },
                {
                    "indexed": true,
                    "internalType": "address",
                    "name": "to",
                    "type": "address"
                },
                {
                    "indexed": false,
                    "internalType": "uint256",
                    "name": "value",
                    "type": "uint256"
                }
            ],
            "name": "Transfer",
            "type": "event"
        },
        {
            "inputs": [],
            "name": "DEFAULT_ADMIN_ROLE",
            "outputs": [
                {
                    "internalType": "bytes32",
                    "name": "",
                    "type": "bytes32"
                }
            ],
            "stateMutability": "view",
            "type": "function"
        },
        {
            "inputs": [],
            "name": "MINTER_ROLE",
            "outputs": [
                {
                    "internalType": "bytes32",
                    "name": "",
                    "type": "bytes32"
                }
            ],
            "stateMutability": "view",
            "type": "function"
        },
        {
            "inputs": [
                {
                    "internalType": "address",
                    "name": "owner",
                    "type": "address"
                },
                {
                    "internalType": "address",
                    "name": "spender",
                    "type": "address"
                }
            ],
            "name": "allowance",
            "outputs": [
                {
                    "internalType": "uint256",
                    "name": "",
                    "type": "uint256"
                }
            ],
            "stateMutability": "view",
            "type": "function"
        },
        {
            "inputs": [
                {
                    "internalType": "address",
                    "name": "spender",
                    "type": "address"
                },
                {
                    "internalType": "uint256",
                    "name": "amount",
                    "type": "uint256"
                }
            ],
            "name": "approve",
            "outputs": [
                {
                    "internalType": "bool",
                    "name": "",
                    "type": "bool"
                }
            ],
            "stateMutability": "nonpayable",
            "type": "function"
        },
        {
            "inputs": [
                {
                    "internalType": "address",
                    "name": "account",
                    "type": "address"
                }
            ],
            "name": "balanceOf",
            "outputs": [
                {
                    "internalType": "uint256",
                    "name": "",
                    "type": "uint256"
                }
            ],
            "stateMutability": "view",
            "type": "function"
        },
        {
            "inputs": [
                {
                    "internalType": "uint256",
                    "name": "amount",
                    "type": "uint256"
                }
            ],
            "name": "burn",
            "outputs": [],
            "stateMutability": "nonpayable",
            "type": "function"
        },
        {
            "inputs": [
                {
                    "internalType": "address",
                    "name": "account",
                    "type": "address"
                },
                {
                    "internalType": "uint256",
                    "name": "amount",
                    "type": "uint256"
                }
            ],
            "name": "burnFrom",
            "outputs": [],
            "stateMutability": "nonpayable",
            "type": "function"
        },
        {
            "inputs": [],
            "name": "decimals",
            "outputs": [
                {
                    "internalType": "uint8",
                    "name": "",
                    "type": "uint8"
                }
            ],
            "stateMutability": "view",
            "type": "function"
        },
        {
            "inputs": [
                {
                    "internalType": "address",
                    "name": "spender",
                    "type": "address"
                },
                {
                    "internalType": "uint256",
                    "name": "subtractedValue",
                    "type": "uint256"
                }
            ],
            "name": "decreaseAllowance",
            "outputs": [
                {
                    "internalType": "bool",
                    "name": "",
                    "type": "bool"
                }
            ],
            "stateMutability": "nonpayable",
            "type": "function"
        },
        {
            "inputs": [
                {
                    "internalType": "bytes32",
                    "name": "role",
                    "type": "bytes32"
                }
            ],
            "name": "getRoleAdmin",
            "outputs": [
                {
                    "internalType": "bytes32",
                    "name": "",
                    "type": "bytes32"
                }
            ],
            "stateMutability": "view",
            "type": "function"
        },
        {
            "inputs": [
                {
                    "internalType": "bytes32",
                    "name": "role",
                    "type": "bytes32"
                },
                {
                    "internalType": "address",
                    "name": "account",
                    "type": "address"
                }
            ],
            "name": "grantRole",
            "outputs": [],
            "stateMutability": "nonpayable",
            "type": "function"
        },
        {
            "inputs": [
                {
                    "internalType": "bytes32",
                    "name": "role",
                    "type": "bytes32"
                },
                {
                    "internalType": "address",
                    "name": "account",
                    "type": "address"
                }
            ],
            "name": "hasRole",
            "outputs": [
                {
                    "internalType": "bool",
                    "name": "",
                    "type": "bool"
                }
            ],
            "stateMutability": "view",
            "type": "function"
        },
        {
            "inputs": [
                {
                    "internalType": "address",
                    "name": "spender",
                    "type": "address"
                },
                {
                    "internalType": "uint256",
                    "name": "addedValue",
                    "type": "uint256"
                }
            ],
            "name": "increaseAllowance",
            "outputs": [
                {
                    "internalType": "bool",
                    "name": "",
                    "type": "bool"
                }
            ],
            "stateMutability": "nonpayable",
            "type": "function"
        },
        {
            "inputs": [
                {
                    "internalType": "address",
                    "name": "to",
                    "type": "address"
                },
                {
                    "internalType": "uint256",
                    "name": "amount",
                    "type": "uint256"
                }
            ],
            "name": "mint",
            "outputs": [],
            "stateMutability": "nonpayable",
            "type": "function"
        },
        {
            "inputs": [],
            "name": "name",
            "outputs": [
                {
                    "internalType": "string",
                    "name": "",
                    "type": "string"
                }
            ],
            "stateMutability": "view",
            "type": "function"
        },
        {
            "inputs": [
                {
                    "internalType": "bytes32",
                    "name": "role",
                    "type": "bytes32"
                },
                {
                    "internalType": "address",
                    "name": "account",
                    "type": "address"
                }
            ],
            "name": "renounceRole",
            "outputs": [],
            "stateMutability": "nonpayable",
            "type": "function"
        },
        {
            "inputs": [
                {
                    "internalType": "bytes32",
                    "name": "role",
                    "type": "bytes32"
                },
                {
                    "internalType": "address",
                    "name": "account",
                    "type": "address"
                }
            ],
            "name": "revokeRole",
            "outputs": [],
            "stateMutability": "nonpayable",
            "type": "function"
        },
        {
            "inputs": [
                {
                    "internalType": "bytes4",
                    "name": "interfaceId",
                    "type": "bytes4"
                }
            ],
            "name": "supportsInterface",
            "outputs": [
                {
                    "internalType": "bool",
                    "name": "",
                    "type": "bool"
                }
            ],
            "stateMutability": "view",
            "type": "function"
        },
        {
            "inputs": [],
            "name": "symbol",
            "outputs": [
                {
                    "internalType": "string",
                    "name": "",
                    "type": "string"
                }
            ],
            "stateMutability": "view",
            "type": "function"
        },
        {
            "inputs": [],
            "name": "totalSupply",
            "outputs": [
                {
                    "internalType": "uint256",
                    "name": "",
                    "type": "uint256"
                }
            ],
            "stateMutability": "view",
            "type": "function"
        },
        {
            "inputs": [
                {
                    "internalType": "address",
                    "name": "to",
                    "type": "address"
                },
                {
                    "internalType": "uint256",
                    "name": "amount",
                    "type": "uint256"
                }
            ],
            "name": "transfer",
            "outputs": [
                {
                    "internalType": "bool",
                    "name": "",
                    "type": "bool"
                }
            ],
            "stateMutability": "nonpayable",
            "type": "function"
        },
        {
            "inputs": [
                {
                    "internalType": "address",
                    "name": "from",
                    "type": "address"
                },
                {
                    "internalType": "address",
                    "name": "to",
                    "type": "address"
                },
                {
                    "internalType": "uint256",
                    "name": "amount",
                    "type": "uint256"
                }
            ],
            "name": "transferFrom",
            "outputs": [
                {
                    "internalType": "bool",
                    "name": "",
                    "type": "bool"
                }
            ],
            "stateMutability": "nonpayable",
            "type": "function"
        }
    ],
    "bytecode": "60806040523480156200001157600080fd5b506040516200163538038062001635833981016040819052620000349162000216565b818160036200004483826200030f565b5060046200005382826200030f565b505050620000887f9f2df0fed2c77648de5860a4cc508cd0818c85b8b8a1ab4ceeef8d981c8956a6336200009d60201b60201c565b620000956000336200009d565b5050620003db565b620000a98282620000ad565b5050565b60008281526005602090815260408083206001600160a01b038516845290915290205460ff16620000a95760008281526005602090815260408083206001600160a01b03851684529091529020805460ff191660011790556200010d3390565b6001600160a01b0316816001600160a01b0316837f2f8788117e7eff1d82e926ec794901d17c78024a50270940304540a733656f0d60405160405180910390a45050565b634e487b7160e01b600052604160045260246000fd5b600082601f8301126200017957600080fd5b81516001600160401b038082111562000196576200019662000151565b604051601f8301601f19908116603f01168101908282118183101715620001c157620001c162000151565b81604052838152602092508683858801011115620001de57600080fd5b600091505b83821015620002025785820183015181830184015290820190620001e3565b600093810190920192909252949350505050565b600080604083850312156200022a57600080fd5b82516001600160401b03808211156200024257600080fd5b620002508683870162000167565b935060208501519150808211156200026757600080fd5b50620002768582860162000167565b9150509250929050565b600181811c908216806200029557607f821691505b602082108103620002b657634e487b7160e01b600052602260045260246000fd5b50919050565b601f8211156200030a57600081815260208120601f850160051c81016020861015620002e55750805b601f850160051c820191505b818110156200030657828155600101620002f1565b5050505b505050565b81516001600160401b038111156200032b576200032b62000151565b62000343816200033c845462000280565b84620002bc565b602080601f8311600181146200037b5760008415620003625750858301515b600019600386901b1c1916600185901b17855562000306565b600085815260208120601f198616915b82811015620003ac578886015182559484019460019091019084016200038b565b5085821015620003cb5787850151600019600388901b60f8161c191681555b5050505050600190811b01905550565b61124a80620003eb6000396000f3fe608060405234801561001057600080fd5b50600436106101425760003560e01c806342966c68116100b8578063a217fddf1161007c578063a217fddf146102a6578063a457c2d7146102ae578063a9059cbb146102c1578063d5391393146102d4578063d547741f146102fb578063dd62ed3e1461030e57600080fd5b806342966c681461023c57806370a082311461024f57806379cc67901461027857806391d148541461028b57806395d89b411461029e57600080fd5b8063248a9ca31161010a578063248a9ca3146101bc5780632f2ff15d146101df578063313ce567146101f457806336568abe14610203578063395093511461021657806340c10f191461022957600080fd5b806301ffc9a71461014757806306fdde031461016f578063095ea7b31461018457806318160ddd1461019757806323b872dd146101a9575b600080fd5b61015a610155366004610f3a565b610321565b60405190151581526020015b60405180910390f35b610177610358565b6040516101669190610f88565b61015a610192366004610fd7565b6103ea565b6002545b604051908152602001610166565b61015a6101b7366004611001565b610402565b61019b6101ca36600461103d565b60009081526005602052604090206001015490565b6101f26101ed366004611056565b610426565b005b60405160128152602001610166565b6101f2610211366004611056565b610450565b61015a610224366004610fd7565b6104d3565b6101f2610237366004610fd7565b6104f5565b6101f261024a36600461103d565b61056e565b61019b61025d366004611082565b6001600160a01b031660009081526020819052604090205490565b6101f2610286366004610fd7565b61057b565b61015a610299366004611056565b610590565b6101776105bb565b61019b600081565b61015a6102bc366004610fd7565b6105ca565b61015a6102cf366004610fd7565b610645565b61019b7f9f2df0fed2c77648de5860a4cc508cd0818c85b8b8a1ab4ceeef8d981c8956a681565b6101f2610309366004611056565b610653565b61019b61031c36600461109d565b610678565b60006001600160e01b03198216637965db0b60e01b148061035257506301ffc9a760e01b6001600160e01b03198316145b92915050565b606060038054610367906110c7565b80601f0160208091040260200160405190810160405280929190818152602001828054610393906110c7565b80156103e05780601f106103b5576101008083540402835291602001916103e0565b820191906000526020600020905b8154815290600101906020018083116103c357829003601f168201915b5050505050905090565b6000336103f88185856106a3565b5060019392505050565b6000336104108582856107c7565b61041b858585610841565b506001949350505050565b60008281526005602052604090206001015461044181610a0f565b61044b8383610a19565b505050565b6001600160a01b03811633146104c55760405162461bcd60e51b815260206004820152602f60248201527f416363657373436f6e74726f6c3a2063616e206f6e6c792072656e6f756e636560448201526e103937b632b9903337b91039b2b63360891b60648201526084015b60405180910390fd5b6104cf8282610a9f565b5050565b6000336103f88185856104e68383610678565b6104f09190611117565b6106a3565b61051f7f9f2df0fed2c77648de5860a4cc508cd0818c85b8b8a1ab4ceeef8d981c8956a633610590565b6105645760405162461bcd60e51b815260206004820152601660248201527521b0b63632b91034b9903737ba10309036b4b73a32b960511b60448201526064016104bc565b6104cf8282610b06565b6105783382610be5565b50565b6105868233836107c7565b6104cf8282610be5565b60009182526005602090815260408084206001600160a01b0393909316845291905290205460ff1690565b606060048054610367906110c7565b600033816105d88286610678565b9050838110156106385760405162461bcd60e51b815260206004820152602560248201527f45524332303a2064656372656173656420616c6c6f77616e63652062656c6f77604482015264207a65726f60d81b60648201526084016104bc565b61041b82868684036106a3565b6000336103f8818585610841565b60008281526005602052604090206001015461066e81610a0f565b61044b8383610a9f565b6001600160a01b03918216600090815260016020908152604080832093909416825291909152205490565b6001600160a01b0383166107055760405162461bcd60e51b8152602060048201526024808201527f45524332303a20617070726f76652066726f6d20746865207a65726f206164646044820152637265737360e01b60648201526084016104bc565b6001600160a01b0382166107665760405162461bcd60e51b815260206004820152602260248201527f45524332303a20617070726f766520746f20746865207a65726f206164647265604482015261737360f01b60648201526084016104bc565b6001600160a01b0383811660008181526001602090815260408083209487168084529482529182902085905590518481527f8c5be1e5ebec7d5bd14f71427d1e84f3dd0314c0f7b2291e5b200ac8c7c3b925910160405180910390a3505050565b60006107d38484610678565b9050600019811461083b578181101561082e5760405162461bcd60e51b815260206004820152601d60248201527f45524332303a20696e73756666696369656e7420616c6c6f77616e636500000060448201526064016104bc565b61083b84848484036106a3565b50505050565b6001600160a01b0383166108a55760405162461bcd60e51b815260206004820152602560248201527f45524332303a207472616e736665722066726f6d20746865207a65726f206164604482015264647265737360d81b60648201526084016104bc565b6001600160a01b0382166109075760405162461bcd60e51b815260206004820152602360248201527f45524332303a207472616e7366657220746f20746865207a65726f206164647260448201526265737360e81b60648201526084016104bc565b6001600160a01b0383166000908152602081905260409020548181101561097f5760405162461bcd60e51b815260206004820152602660248201527f45524332303a207472616e7366657220616d6f756e7420657863656564732062604482015265616c616e636560d01b60648201526084016104bc565b6001600160a01b038085166000908152602081905260408082208585039055918516815290812080548492906109b6908490611117565b92505081905550826001600160a01b0316846001600160a01b03167fddf252ad1be2c89b69c2b068fc378daa952ba7f163c4a11628f55a4df523b3ef84604051610a0291815260200190565b60405180910390a361083b565b6105788133610d33565b610a238282610590565b6104cf5760008281526005602090815260408083206001600160a01b03851684529091529020805460ff19166001179055610a5b3390565b6001600160a01b0316816001600160a01b0316837f2f8788117e7eff1d82e926ec794901d17c78024a50270940304540a733656f0d60405160405180910390a45050565b610aa98282610590565b156104cf5760008281526005602090815260408083206001600160a01b0385168085529252808320805460ff1916905551339285917ff6391f5c32d9c69d2a47ea670b442974b53935d1edc7fd64eb21e047a839171b9190a45050565b6001600160a01b038216610b5c5760405162461bcd60e51b815260206004820152601f60248201527f45524332303a206d696e7420746f20746865207a65726f20616464726573730060448201526064016104bc565b8060026000828254610b6e9190611117565b90915550506001600160a01b03821660009081526020819052604081208054839290610b9b908490611117565b90915550506040518181526001600160a01b038316906000907fddf252ad1be2c89b69c2b068fc378daa952ba7f163c4a11628f55a4df523b3ef9060200160405180910390a35050565b6001600160a01b038216610c455760405162461bcd60e51b815260206004820152602160248201527f45524332303a206275726e2066726f6d20746865207a65726f206164647265736044820152607360f81b60648201526084016104bc565b6001600160a01b03821660009081526020819052604090205481811015610cb95760405162461bcd60e51b815260206004820152602260248201527f45524332303a206275726e20616d6f756e7420657863656564732062616c616e604482015261636560f01b60648201526084016104bc565b6001600160a01b0383166000908152602081905260408120838303905560028054849290610ce890849061112a565b90915550506040518281526000906001600160a01b038516907fddf252ad1be2c89b69c2b068fc378daa952ba7f163c4a11628f55a4df523b3ef9060200160405180910390a3505050565b610d3d8282610590565b6104cf57610d55816001600160a01b03166014610d97565b610d60836020610d97565b604051602001610d7192919061113d565b60408051601f198184030181529082905262461bcd60e51b82526104bc91600401610f88565b60606000610da68360026111b2565b610db1906002611117565b67ffffffffffffffff811115610dc957610dc96111d1565b6040519080825280601f01601f191660200182016040528015610df3576020820181803683370190505b509050600360fc1b81600081518110610e0e57610e0e6111e7565b60200101906001600160f81b031916908160001a905350600f60fb1b81600181518110610e3d57610e3d6111e7565b60200101906001600160f81b031916908160001a9053506000610e618460026111b2565b610e6c906001611117565b90505b6001811115610ee4576f181899199a1a9b1b9c1cb0b131b232b360811b85600f1660108110610ea057610ea06111e7565b1a60f81b828281518110610eb657610eb66111e7565b60200101906001600160f81b031916908160001a90535060049490941c93610edd816111fd565b9050610e6f565b508315610f335760405162461bcd60e51b815260206004820181905260248201527f537472696e67733a20686578206c656e67746820696e73756666696369656e7460448201526064016104bc565b9392505050565b600060208284031215610f4c57600080fd5b81356001600160e01b031981168114610f3357600080fd5b60005b83811015610f7f578181015183820152602001610f67565b50506000910152565b6020815260008251806020840152610fa7816040850160208701610f64565b601f01601f19169190910160400192915050565b80356001600160a01b0381168114610fd257600080fd5b919050565b60008060408385031215610fea57600080fd5b610ff383610fbb565b946020939093013593505050565b60008060006060848603121561101657600080fd5b61101f84610fbb565b925061102d60208501610fbb565b9150604084013590509250925092565b60006020828403121561104f57600080fd5b5035919050565b6000806040838503121561106957600080fd5b8235915061107960208401610fbb565b90509250929050565b60006020828403121561109457600080fd5b610f3382610fbb565b600080604083850312156110b057600080fd5b6110b983610fbb565b915061107960208401610fbb565b600181811c908216806110db57607f821691505b6020821081036110fb57634e487b7160e01b600052602260045260246000fd5b50919050565b634e487b7160e01b600052601160045260246000fd5b8082018082111561035257610352611101565b8181038181111561035257610352611101565b7f416363657373436f6e74726f6c3a206163636f756e7420000000000000000000815260008351611175816017850160208801610f64565b7001034b99036b4b9b9b4b733903937b6329607d1b60179184019182015283516111a6816028840160208801610f64565b01602801949350505050565b60008160001904831182151516156111cc576111cc611101565b500290565b634e487b7160e01b600052604160045260246000fd5b634e487b7160e01b600052603260045260246000fd5b60008161120c5761120c611101565b50600019019056fea26469706673582212209e077014913e8a39a299fd59fe87984488706ab3503aea690877fca201af533d64736f6c63430008100033",
    "sourcePath": "c:/Users/Nikos/Desktop/SolidityBootcamp/Encode-Solidity-Bootcamp-Weekend-Projects/team-project/payroll/contracts/Payroll.sol",
    "compiler": {
        "name": "solc",
        "version": "0.8.16+commit.07a7930e"
    },
    "functionHashes": {
        "DEFAULT_ADMIN_ROLE()": "a217fddf",
        "MINTER_ROLE()": "d5391393",
        "allowance(address,address)": "dd62ed3e",
        "approve(address,uint256)": "095ea7b3",
        "balanceOf(address)": "70a08231",
        "burn(uint256)": "42966c68",
        "burnFrom(address,uint256)": "79cc6790",
        "decimals()": "313ce567",
        "decreaseAllowance(address,uint256)": "a457c2d7",
        "getRoleAdmin(bytes32)": "248a9ca3",
        "grantRole(bytes32,address)": "2f2ff15d",
        "hasRole(bytes32,address)": "91d14854",
        "increaseAllowance(address,uint256)": "39509351",
        "mint(address,uint256)": "40c10f19",
        "name()": "06fdde03",
        "renounceRole(bytes32,address)": "36568abe",
        "revokeRole(bytes32,address)": "d547741f",
        "supportsInterface(bytes4)": "01ffc9a7",
        "symbol()": "95d89b41",
        "totalSupply()": "18160ddd",
        "transfer(address,uint256)": "a9059cbb",
        "transferFrom(address,address,uint256)": "23b872dd"
    },
    "gasEstimates": {
        "creation": {
            "codeDepositCost": "936400",
            "executionCost": "infinite",
            "totalCost": "infinite"
        },
        "external": {
            "DEFAULT_ADMIN_ROLE()": "217",
            "MINTER_ROLE()": "283",
            "allowance(address,address)": "infinite",
            "approve(address,uint256)": "24658",
            "balanceOf(address)": "2585",
            "burn(uint256)": "50880",
            "burnFrom(address,uint256)": "77634",
            "decimals()": "244",
            "decreaseAllowance(address,uint256)": "26983",
            "getRoleAdmin(bytes32)": "2467",
            "grantRole(bytes32,address)": "infinite",
            "hasRole(bytes32,address)": "2743",
            "increaseAllowance(address,uint256)": "27083",
            "mint(address,uint256)": "infinite",
            "name()": "infinite",
            "renounceRole(bytes32,address)": "29090",
            "revokeRole(bytes32,address)": "infinite",
            "supportsInterface(bytes4)": "450",
            "symbol()": "infinite",
            "totalSupply()": "2371",
            "transfer(address,uint256)": "51242",
            "transferFrom(address,address,uint256)": "infinite"
        }
    }
}