{
    "contractName": "MyToken",
    "abi": [
        {
            "inputs": [],
            "stateMutability": "nonpayable",
            "type": "constructor"
        },
        {
            "anonymous": false,
            "inputs": [
                {
                    "indexed": true,
                    "internalType": "address",
                    "name": "owner",
                    "type": "address"
                },
                {
                    "indexed": true,
                    "internalType": "address",
                    "name": "spender",
                    "type": "address"
                },
                {
                    "indexed": false,
                    "internalType": "uint256",
                    "name": "value",
                    "type": "uint256"
                }
            ],
            "name": "Approval",
            "type": "event"
        },
        {
            "anonymous": false,
            "inputs": [
                {
                    "indexed": true,
                    "internalType": "address",
                    "name": "delegator",
                    "type": "address"
                },
                {
                    "indexed": true,
                    "internalType": "address",
                    "name": "fromDelegate",
                    "type": "address"
                },
                {
                    "indexed": true,
                    "internalType": "address",
                    "name": "toDelegate",
                    "type": "address"
                }
            ],
            "name": "DelegateChanged",
            "type": "event"
        },
        {
            "anonymous": false,
            "inputs": [
                {
                    "indexed": true,
                    "internalType": "address",
                    "name": "delegate",
                    "type": "address"
                },
                {
                    "indexed": false,
                    "internalType": "uint256",
                    "name": "previousBalance",
                    "type": "uint256"
                },
                {
                    "indexed": false,
                    "internalType": "uint256",
                    "name": "newBalance",
                    "type": "uint256"
                }
            ],
            "name": "DelegateVotesChanged",
            "type": "event"
        },
        {
            "anonymous": false,
            "inputs": [
                {
                    "indexed": true,
                    "internalType": "bytes32",
                    "name": "role",
                    "type": "bytes32"
                },
                {
                    "indexed": true,
                    "internalType": "bytes32",
                    "name": "previousAdminRole",
                    "type": "bytes32"
                },
                {
                    "indexed": true,
                    "internalType": "bytes32",
                    "name": "newAdminRole",
                    "type": "bytes32"
                }
            ],
            "name": "RoleAdminChanged",
            "type": "event"
        },
        {
            "anonymous": false,
            "inputs": [
                {
                    "indexed": true,
                    "internalType": "bytes32",
                    "name": "role",
                    "type": "bytes32"
                },
                {
                    "indexed": true,
                    "internalType": "address",
                    "name": "account",
                    "type": "address"
                },
                {
                    "indexed": true,
                    "internalType": "address",
                    "name": "sender",
                    "type": "address"
                }
            ],
            "name": "RoleGranted",
            "type": "event"
        },
        {
            "anonymous": false,
            "inputs": [
                {
                    "indexed": true,
                    "internalType": "bytes32",
                    "name": "role",
                    "type": "bytes32"
                },
                {
                    "indexed": true,
                    "internalType": "address",
                    "name": "account",
                    "type": "address"
                },
                {
                    "indexed": true,
                    "internalType": "address",
                    "name": "sender",
                    "type": "address"
                }
            ],
            "name": "RoleRevoked",
            "type": "event"
        },
        {
            "anonymous": false,
            "inputs": [
                {
                    "indexed": true,
                    "internalType": "address",
                    "name": "from",
                    "type": "address"
                },
                {
                    "indexed": true,
                    "internalType": "address",
                    "name": "to",
                    "type": "address"
                },
                {
                    "indexed": false,
                    "internalType": "uint256",
                    "name": "value",
                    "type": "uint256"
                }
            ],
            "name": "Transfer",
            "type": "event"
        },
        {
            "inputs": [],
            "name": "DEFAULT_ADMIN_ROLE",
            "outputs": [
                {
                    "internalType": "bytes32",
                    "name": "",
                    "type": "bytes32"
                }
            ],
            "stateMutability": "view",
            "type": "function"
        },
        {
            "inputs": [],
            "name": "DOMAIN_SEPARATOR",
            "outputs": [
                {
                    "internalType": "bytes32",
                    "name": "",
                    "type": "bytes32"
                }
            ],
            "stateMutability": "view",
            "type": "function"
        },
        {
            "inputs": [],
            "name": "MINTER_ROLE",
            "outputs": [
                {
                    "internalType": "bytes32",
                    "name": "",
                    "type": "bytes32"
                }
            ],
            "stateMutability": "view",
            "type": "function"
        },
        {
            "inputs": [
                {
                    "internalType": "address",
                    "name": "owner",
                    "type": "address"
                },
                {
                    "internalType": "address",
                    "name": "spender",
                    "type": "address"
                }
            ],
            "name": "allowance",
            "outputs": [
                {
                    "internalType": "uint256",
                    "name": "",
                    "type": "uint256"
                }
            ],
            "stateMutability": "view",
            "type": "function"
        },
        {
            "inputs": [
                {
                    "internalType": "address",
                    "name": "spender",
                    "type": "address"
                },
                {
                    "internalType": "uint256",
                    "name": "amount",
                    "type": "uint256"
                }
            ],
            "name": "approve",
            "outputs": [
                {
                    "internalType": "bool",
                    "name": "",
                    "type": "bool"
                }
            ],
            "stateMutability": "nonpayable",
            "type": "function"
        },
        {
            "inputs": [
                {
                    "internalType": "address",
                    "name": "account",
                    "type": "address"
                }
            ],
            "name": "balanceOf",
            "outputs": [
                {
                    "internalType": "uint256",
                    "name": "",
                    "type": "uint256"
                }
            ],
            "stateMutability": "view",
            "type": "function"
        },
        {
            "inputs": [
                {
                    "internalType": "address",
                    "name": "account",
                    "type": "address"
                },
                {
                    "internalType": "uint32",
                    "name": "pos",
                    "type": "uint32"
                }
            ],
            "name": "checkpoints",
            "outputs": [
                {
                    "components": [
                        {
                            "internalType": "uint32",
                            "name": "fromBlock",
                            "type": "uint32"
                        },
                        {
                            "internalType": "uint224",
                            "name": "votes",
                            "type": "uint224"
                        }
                    ],
                    "internalType": "struct ERC20Votes.Checkpoint",
                    "name": "",
                    "type": "tuple"
                }
            ],
            "stateMutability": "view",
            "type": "function"
        },
        {
            "inputs": [],
            "name": "decimals",
            "outputs": [
                {
                    "internalType": "uint8",
                    "name": "",
                    "type": "uint8"
                }
            ],
            "stateMutability": "view",
            "type": "function"
        },
        {
            "inputs": [
                {
                    "internalType": "address",
                    "name": "spender",
                    "type": "address"
                },
                {
                    "internalType": "uint256",
                    "name": "subtractedValue",
                    "type": "uint256"
                }
            ],
            "name": "decreaseAllowance",
            "outputs": [
                {
                    "internalType": "bool",
                    "name": "",
                    "type": "bool"
                }
            ],
            "stateMutability": "nonpayable",
            "type": "function"
        },
        {
            "inputs": [
                {
                    "internalType": "address",
                    "name": "delegatee",
                    "type": "address"
                }
            ],
            "name": "delegate",
            "outputs": [],
            "stateMutability": "nonpayable",
            "type": "function"
        },
        {
            "inputs": [
                {
                    "internalType": "address",
                    "name": "delegatee",
                    "type": "address"
                },
                {
                    "internalType": "uint256",
                    "name": "nonce",
                    "type": "uint256"
                },
                {
                    "internalType": "uint256",
                    "name": "expiry",
                    "type": "uint256"
                },
                {
                    "internalType": "uint8",
                    "name": "v",
                    "type": "uint8"
                },
                {
                    "internalType": "bytes32",
                    "name": "r",
                    "type": "bytes32"
                },
                {
                    "internalType": "bytes32",
                    "name": "s",
                    "type": "bytes32"
                }
            ],
            "name": "delegateBySig",
            "outputs": [],
            "stateMutability": "nonpayable",
            "type": "function"
        },
        {
            "inputs": [
                {
                    "internalType": "address",
                    "name": "account",
                    "type": "address"
                }
            ],
            "name": "delegates",
            "outputs": [
                {
                    "internalType": "address",
                    "name": "",
                    "type": "address"
                }
            ],
            "stateMutability": "view",
            "type": "function"
        },
        {
            "inputs": [
                {
                    "internalType": "uint256",
                    "name": "blockNumber",
                    "type": "uint256"
                }
            ],
            "name": "getPastTotalSupply",
            "outputs": [
                {
                    "internalType": "uint256",
                    "name": "",
                    "type": "uint256"
                }
            ],
            "stateMutability": "view",
            "type": "function"
        },
        {
            "inputs": [
                {
                    "internalType": "address",
                    "name": "account",
                    "type": "address"
                },
                {
                    "internalType": "uint256",
                    "name": "blockNumber",
                    "type": "uint256"
                }
            ],
            "name": "getPastVotes",
            "outputs": [
                {
                    "internalType": "uint256",
                    "name": "",
                    "type": "uint256"
                }
            ],
            "stateMutability": "view",
            "type": "function"
        },
        {
            "inputs": [
                {
                    "internalType": "bytes32",
                    "name": "role",
                    "type": "bytes32"
                }
            ],
            "name": "getRoleAdmin",
            "outputs": [
                {
                    "internalType": "bytes32",
                    "name": "",
                    "type": "bytes32"
                }
            ],
            "stateMutability": "view",
            "type": "function"
        },
        {
            "inputs": [
                {
                    "internalType": "address",
                    "name": "account",
                    "type": "address"
                }
            ],
            "name": "getVotes",
            "outputs": [
                {
                    "internalType": "uint256",
                    "name": "",
                    "type": "uint256"
                }
            ],
            "stateMutability": "view",
            "type": "function"
        },
        {
            "inputs": [
                {
                    "internalType": "bytes32",
                    "name": "role",
                    "type": "bytes32"
                },
                {
                    "internalType": "address",
                    "name": "account",
                    "type": "address"
                }
            ],
            "name": "grantRole",
            "outputs": [],
            "stateMutability": "nonpayable",
            "type": "function"
        },
        {
            "inputs": [
                {
                    "internalType": "bytes32",
                    "name": "role",
                    "type": "bytes32"
                },
                {
                    "internalType": "address",
                    "name": "account",
                    "type": "address"
                }
            ],
            "name": "hasRole",
            "outputs": [
                {
                    "internalType": "bool",
                    "name": "",
                    "type": "bool"
                }
            ],
            "stateMutability": "view",
            "type": "function"
        },
        {
            "inputs": [
                {
                    "internalType": "address",
                    "name": "spender",
                    "type": "address"
                },
                {
                    "internalType": "uint256",
                    "name": "addedValue",
                    "type": "uint256"
                }
            ],
            "name": "increaseAllowance",
            "outputs": [
                {
                    "internalType": "bool",
                    "name": "",
                    "type": "bool"
                }
            ],
            "stateMutability": "nonpayable",
            "type": "function"
        },
        {
            "inputs": [
                {
                    "internalType": "address",
                    "name": "to",
                    "type": "address"
                },
                {
                    "internalType": "uint256",
                    "name": "amount",
                    "type": "uint256"
                }
            ],
            "name": "mint",
            "outputs": [],
            "stateMutability": "nonpayable",
            "type": "function"
        },
        {
            "inputs": [],
            "name": "name",
            "outputs": [
                {
                    "internalType": "string",
                    "name": "",
                    "type": "string"
                }
            ],
            "stateMutability": "view",
            "type": "function"
        },
        {
            "inputs": [
                {
                    "internalType": "address",
                    "name": "owner",
                    "type": "address"
                }
            ],
            "name": "nonces",
            "outputs": [
                {
                    "internalType": "uint256",
                    "name": "",
                    "type": "uint256"
                }
            ],
            "stateMutability": "view",
            "type": "function"
        },
        {
            "inputs": [
                {
                    "internalType": "address",
                    "name": "account",
                    "type": "address"
                }
            ],
            "name": "numCheckpoints",
            "outputs": [
                {
                    "internalType": "uint32",
                    "name": "",
                    "type": "uint32"
                }
            ],
            "stateMutability": "view",
            "type": "function"
        },
        {
            "inputs": [
                {
                    "internalType": "address",
                    "name": "owner",
                    "type": "address"
                },
                {
                    "internalType": "address",
                    "name": "spender",
                    "type": "address"
                },
                {
                    "internalType": "uint256",
                    "name": "value",
                    "type": "uint256"
                },
                {
                    "internalType": "uint256",
                    "name": "deadline",
                    "type": "uint256"
                },
                {
                    "internalType": "uint8",
                    "name": "v",
                    "type": "uint8"
                },
                {
                    "internalType": "bytes32",
                    "name": "r",
                    "type": "bytes32"
                },
                {
                    "internalType": "bytes32",
                    "name": "s",
                    "type": "bytes32"
                }
            ],
            "name": "permit",
            "outputs": [],
            "stateMutability": "nonpayable",
            "type": "function"
        },
        {
            "inputs": [
                {
                    "internalType": "bytes32",
                    "name": "role",
                    "type": "bytes32"
                },
                {
                    "internalType": "address",
                    "name": "account",
                    "type": "address"
                }
            ],
            "name": "renounceRole",
            "outputs": [],
            "stateMutability": "nonpayable",
            "type": "function"
        },
        {
            "inputs": [
                {
                    "internalType": "bytes32",
                    "name": "role",
                    "type": "bytes32"
                },
                {
                    "internalType": "address",
                    "name": "account",
                    "type": "address"
                }
            ],
            "name": "revokeRole",
            "outputs": [],
            "stateMutability": "nonpayable",
            "type": "function"
        },
        {
            "inputs": [
                {
                    "internalType": "bytes4",
                    "name": "interfaceId",
                    "type": "bytes4"
                }
            ],
            "name": "supportsInterface",
            "outputs": [
                {
                    "internalType": "bool",
                    "name": "",
                    "type": "bool"
                }
            ],
            "stateMutability": "view",
            "type": "function"
        },
        {
            "inputs": [],
            "name": "symbol",
            "outputs": [
                {
                    "internalType": "string",
                    "name": "",
                    "type": "string"
                }
            ],
            "stateMutability": "view",
            "type": "function"
        },
        {
            "inputs": [],
            "name": "totalSupply",
            "outputs": [
                {
                    "internalType": "uint256",
                    "name": "",
                    "type": "uint256"
                }
            ],
            "stateMutability": "view",
            "type": "function"
        },
        {
            "inputs": [
                {
                    "internalType": "address",
                    "name": "to",
                    "type": "address"
                },
                {
                    "internalType": "uint256",
                    "name": "amount",
                    "type": "uint256"
                }
            ],
            "name": "transfer",
            "outputs": [
                {
                    "internalType": "bool",
                    "name": "",
                    "type": "bool"
                }
            ],
            "stateMutability": "nonpayable",
            "type": "function"
        },
        {
            "inputs": [
                {
                    "internalType": "address",
                    "name": "from",
                    "type": "address"
                },
                {
                    "internalType": "address",
                    "name": "to",
                    "type": "address"
                },
                {
                    "internalType": "uint256",
                    "name": "amount",
                    "type": "uint256"
                }
            ],
            "name": "transferFrom",
            "outputs": [
                {
                    "internalType": "bool",
                    "name": "",
                    "type": "bool"
                }
            ],
            "stateMutability": "nonpayable",
            "type": "function"
        }
    ],
    "bytecode": "6101406040523480156200001257600080fd5b506040518060400160405280600781526020016626bcaa37b5b2b760c91b81525080604051806040016040528060018152602001603160f81b8152506040518060400160405280600781526020016626bcaa37b5b2b760c91b815250604051806040016040528060038152602001624d544b60e81b81525081600390816200009b9190620002c7565b506004620000aa8282620002c7565b5050825160209384012082519284019290922060e08390526101008190524660a0818152604080517f8b73c3c69bb8fe3d512ecc4cf759cc79239f7b179b0ffacaa9a75d522b39400f818901819052818301979097526060810194909452608080850193909352308483018190528151808603909301835260c09485019091528151919096012090529290925261012052506200014b90506000336200017d565b620001777f9f2df0fed2c77648de5860a4cc508cd0818c85b8b8a1ab4ceeef8d981c8956a6336200017d565b62000393565b60008281526005602090815260408083206001600160a01b038516845290915290205460ff166200021e5760008281526005602090815260408083206001600160a01b03851684529091529020805460ff19166001179055620001dd3390565b6001600160a01b0316816001600160a01b0316837f2f8788117e7eff1d82e926ec794901d17c78024a50270940304540a733656f0d60405160405180910390a45b5050565b634e487b7160e01b600052604160045260246000fd5b600181811c908216806200024d57607f821691505b6020821081036200026e57634e487b7160e01b600052602260045260246000fd5b50919050565b601f821115620002c257600081815260208120601f850160051c810160208610156200029d5750805b601f850160051c820191505b81811015620002be57828155600101620002a9565b5050505b505050565b81516001600160401b03811115620002e357620002e362000222565b620002fb81620002f4845462000238565b8462000274565b602080601f8311600181146200033357600084156200031a5750858301515b600019600386901b1c1916600185901b178555620002be565b600085815260208120601f198616915b82811015620003645788860151825594840194600190910190840162000343565b5085821015620003835787850151600019600388901b60f8161c191681555b5050505050600190811b01905550565b60805160a05160c05160e0516101005161012051612295620003e36000396000611152015260006111a10152600061117c015260006110d5015260006110ff0152600061112901526122956000f3fe608060405234801561001057600080fd5b50600436106101e55760003560e01c80636fcfff451161010f578063a457c2d7116100a2578063d539139311610071578063d53913931461044a578063d547741f14610471578063dd62ed3e14610484578063f1127ed81461049757600080fd5b8063a457c2d7146103fe578063a9059cbb14610411578063c3cda52014610424578063d505accf1461043757600080fd5b806391d14854116100de57806391d14854146103c857806395d89b41146103db5780639ab24eb0146103e3578063a217fddf146103f657600080fd5b80636fcfff451461035157806370a08231146103795780637ecebe00146103a25780638e539e8c146103b557600080fd5b8063313ce567116101875780633a46b1a8116101565780633a46b1a8146102d457806340c10f19146102e7578063587cde1e146102fa5780635c19a95c1461033e57600080fd5b8063313ce567146102975780633644e515146102a657806336568abe146102ae57806339509351146102c157600080fd5b806318160ddd116101c357806318160ddd1461023a57806323b872dd1461024c578063248a9ca31461025f5780632f2ff15d1461028257600080fd5b806301ffc9a7146101ea57806306fdde0314610212578063095ea7b314610227575b600080fd5b6101fd6101f8366004611e40565b6104d4565b60405190151581526020015b60405180910390f35b61021a61050b565b6040516102099190611e8e565b6101fd610235366004611edd565b61059d565b6002545b604051908152602001610209565b6101fd61025a366004611f07565b6105b5565b61023e61026d366004611f43565b60009081526005602052604090206001015490565b610295610290366004611f5c565b6105d9565b005b60405160128152602001610209565b61023e610603565b6102956102bc366004611f5c565b610612565b6101fd6102cf366004611edd565b610695565b61023e6102e2366004611edd565b6106b7565b6102956102f5366004611edd565b610731565b610326610308366004611f88565b6001600160a01b039081166000908152600860205260409020541690565b6040516001600160a01b039091168152602001610209565b61029561034c366004611f88565b610765565b61036461035f366004611f88565b610772565b60405163ffffffff9091168152602001610209565b61023e610387366004611f88565b6001600160a01b031660009081526020819052604090205490565b61023e6103b0366004611f88565b610794565b61023e6103c3366004611f43565b6107b2565b6101fd6103d6366004611f5c565b61080e565b61021a610839565b61023e6103f1366004611f88565b610848565b61023e600081565b6101fd61040c366004611edd565b6108cf565b6101fd61041f366004611edd565b61094a565b610295610432366004611fb4565b610958565b61029561044536600461200c565b610a8e565b61023e7f9f2df0fed2c77648de5860a4cc508cd0818c85b8b8a1ab4ceeef8d981c8956a681565b61029561047f366004611f5c565b610bf2565b61023e610492366004612076565b610c17565b6104aa6104a53660046120a0565b610c42565b60408051825163ffffffff1681526020928301516001600160e01b03169281019290925201610209565b60006001600160e01b03198216637965db0b60e01b148061050557506301ffc9a760e01b6001600160e01b03198316145b92915050565b60606003805461051a906120e0565b80601f0160208091040260200160405190810160405280929190818152602001828054610546906120e0565b80156105935780601f1061056857610100808354040283529160200191610593565b820191906000526020600020905b81548152906001019060200180831161057657829003601f168201915b5050505050905090565b6000336105ab818585610cc6565b5060019392505050565b6000336105c3858285610dea565b6105ce858585610e64565b506001949350505050565b6000828152600560205260409020600101546105f481611038565b6105fe8383611042565b505050565b600061060d6110c8565b905090565b6001600160a01b03811633146106875760405162461bcd60e51b815260206004820152602f60248201527f416363657373436f6e74726f6c3a2063616e206f6e6c792072656e6f756e636560448201526e103937b632b9903337b91039b2b63360891b60648201526084015b60405180910390fd5b61069182826111ef565b5050565b6000336105ab8185856106a88383610c17565b6106b2919061212a565b610cc6565b60004382106107085760405162461bcd60e51b815260206004820152601f60248201527f4552433230566f7465733a20626c6f636b206e6f7420796574206d696e656400604482015260640161067e565b6001600160a01b038316600090815260096020526040902061072a9083611256565b9392505050565b7f9f2df0fed2c77648de5860a4cc508cd0818c85b8b8a1ab4ceeef8d981c8956a661075b81611038565b6105fe8383611313565b61076f338261131d565b50565b6001600160a01b03811660009081526009602052604081205461050590611396565b6001600160a01b038116600090815260066020526040812054610505565b60004382106108035760405162461bcd60e51b815260206004820152601f60248201527f4552433230566f7465733a20626c6f636b206e6f7420796574206d696e656400604482015260640161067e565b610505600a83611256565b60009182526005602090815260408084206001600160a01b0393909316845291905290205460ff1690565b60606004805461051a906120e0565b6001600160a01b03811660009081526009602052604081205480156108bc576001600160a01b038316600090815260096020526040902061088a60018361213d565b8154811061089a5761089a612150565b60009182526020909120015464010000000090046001600160e01b03166108bf565b60005b6001600160e01b03169392505050565b600033816108dd8286610c17565b90508381101561093d5760405162461bcd60e51b815260206004820152602560248201527f45524332303a2064656372656173656420616c6c6f77616e63652062656c6f77604482015264207a65726f60d81b606482015260840161067e565b6105ce8286868403610cc6565b6000336105ab818585610e64565b834211156109a85760405162461bcd60e51b815260206004820152601d60248201527f4552433230566f7465733a207369676e61747572652065787069726564000000604482015260640161067e565b604080517fe48329057bfd03d55e49b547132e39cffd9c1820ad7b9d4c5307691425d15adf60208201526001600160a01b038816918101919091526060810186905260808101859052600090610a2290610a1a9060a001604051602081830303815290604052805190602001206113ff565b85858561144d565b9050610a2d81611475565b8614610a7b5760405162461bcd60e51b815260206004820152601960248201527f4552433230566f7465733a20696e76616c6964206e6f6e636500000000000000604482015260640161067e565b610a85818861131d565b50505050505050565b83421115610ade5760405162461bcd60e51b815260206004820152601d60248201527f45524332305065726d69743a206578706972656420646561646c696e65000000604482015260640161067e565b60007f6e71edae12b1b97f4d1f60370fef10105fa2faae0126114a169c64845d6126c9888888610b0d8c611475565b6040805160208101969096526001600160a01b0394851690860152929091166060840152608083015260a082015260c0810186905260e0016040516020818303038152906040528051906020012090506000610b68826113ff565b90506000610b788287878761144d565b9050896001600160a01b0316816001600160a01b031614610bdb5760405162461bcd60e51b815260206004820152601e60248201527f45524332305065726d69743a20696e76616c6964207369676e61747572650000604482015260640161067e565b610be68a8a8a610cc6565b50505050505050505050565b600082815260056020526040902060010154610c0d81611038565b6105fe83836111ef565b6001600160a01b03918216600090815260016020908152604080832093909416825291909152205490565b60408051808201909152600080825260208201526001600160a01b0383166000908152600960205260409020805463ffffffff8416908110610c8657610c86612150565b60009182526020918290206040805180820190915291015463ffffffff8116825264010000000090046001600160e01b0316918101919091529392505050565b6001600160a01b038316610d285760405162461bcd60e51b8152602060048201526024808201527f45524332303a20617070726f76652066726f6d20746865207a65726f206164646044820152637265737360e01b606482015260840161067e565b6001600160a01b038216610d895760405162461bcd60e51b815260206004820152602260248201527f45524332303a20617070726f766520746f20746865207a65726f206164647265604482015261737360f01b606482015260840161067e565b6001600160a01b0383811660008181526001602090815260408083209487168084529482529182902085905590518481527f8c5be1e5ebec7d5bd14f71427d1e84f3dd0314c0f7b2291e5b200ac8c7c3b925910160405180910390a3505050565b6000610df68484610c17565b90506000198114610e5e5781811015610e515760405162461bcd60e51b815260206004820152601d60248201527f45524332303a20696e73756666696369656e7420616c6c6f77616e6365000000604482015260640161067e565b610e5e8484848403610cc6565b50505050565b6001600160a01b038316610ec85760405162461bcd60e51b815260206004820152602560248201527f45524332303a207472616e736665722066726f6d20746865207a65726f206164604482015264647265737360d81b606482015260840161067e565b6001600160a01b038216610f2a5760405162461bcd60e51b815260206004820152602360248201527f45524332303a207472616e7366657220746f20746865207a65726f206164647260448201526265737360e81b606482015260840161067e565b6001600160a01b03831660009081526020819052604090205481811015610fa25760405162461bcd60e51b815260206004820152602660248201527f45524332303a207472616e7366657220616d6f756e7420657863656564732062604482015265616c616e636560d01b606482015260840161067e565b6001600160a01b03808516600090815260208190526040808220858503905591851681529081208054849290610fd990849061212a565b92505081905550826001600160a01b0316846001600160a01b03167fddf252ad1be2c89b69c2b068fc378daa952ba7f163c4a11628f55a4df523b3ef8460405161102591815260200190565b60405180910390a3610e5e84848461149d565b61076f81336114a8565b61104c828261080e565b6106915760008281526005602090815260408083206001600160a01b03851684529091529020805460ff191660011790556110843390565b6001600160a01b0316816001600160a01b0316837f2f8788117e7eff1d82e926ec794901d17c78024a50270940304540a733656f0d60405160405180910390a45050565b6000306001600160a01b037f00000000000000000000000000000000000000000000000000000000000000001614801561112157507f000000000000000000000000000000000000000000000000000000000000000046145b1561114b57507f000000000000000000000000000000000000000000000000000000000000000090565b50604080517f00000000000000000000000000000000000000000000000000000000000000006020808301919091527f0000000000000000000000000000000000000000000000000000000000000000828401527f000000000000000000000000000000000000000000000000000000000000000060608301524660808301523060a0808401919091528351808403909101815260c0909201909252805191012090565b6111f9828261080e565b156106915760008281526005602090815260408083206001600160a01b0385168085529252808320805460ff1916905551339285917ff6391f5c32d9c69d2a47ea670b442974b53935d1edc7fd64eb21e047a839171b9190a45050565b8154600090815b818110156112ba576000611271828461150c565b90508486828154811061128657611286612150565b60009182526020909120015463ffffffff1611156112a6578092506112b4565b6112b181600161212a565b91505b5061125d565b81156112fe57846112cc60018461213d565b815481106112dc576112dc612150565b60009182526020909120015464010000000090046001600160e01b0316611301565b60005b6001600160e01b031695945050505050565b6106918282611527565b6001600160a01b038281166000818152600860208181526040808420805485845282862054949093528787166001600160a01b03198416811790915590519190951694919391928592917f3134e8a2e6d97e929a7e54011ea5485d7d196dd5f0ba4d4ef95803e8e3fc257f9190a4610e5e8284836115b1565b600063ffffffff8211156113fb5760405162461bcd60e51b815260206004820152602660248201527f53616665436173743a2076616c756520646f65736e27742066697420696e203360448201526532206269747360d01b606482015260840161067e565b5090565b600061050561140c6110c8565b8360405161190160f01b6020820152602281018390526042810182905260009060620160405160208183030381529060405280519060200120905092915050565b600080600061145e878787876116ee565b9150915061146b816117db565b5095945050505050565b6001600160a01b03811660009081526006602052604090208054600181018255905b50919050565b6105fe838383611991565b6114b2828261080e565b610691576114ca816001600160a01b031660146119c3565b6114d58360206119c3565b6040516020016114e6929190612166565b60408051601f198184030181529082905262461bcd60e51b825261067e91600401611e8e565b600061151b60028484186121db565b61072a9084841661212a565b6115318282611b5f565b6002546001600160e01b0310156115a35760405162461bcd60e51b815260206004820152603060248201527f4552433230566f7465733a20746f74616c20737570706c79207269736b73206f60448201526f766572666c6f77696e6720766f74657360801b606482015260840161067e565b610e5e600a611c4683611c52565b816001600160a01b0316836001600160a01b0316141580156115d35750600081115b156105fe576001600160a01b03831615611661576001600160a01b0383166000908152600960205260408120819061160e90611dcb85611c52565b91509150846001600160a01b03167fdec2bacdd2f05b59de34da9b523dff8be42e5e38e818c82fdb0bae774387a7248383604051611656929190918252602082015260400190565b60405180910390a250505b6001600160a01b038216156105fe576001600160a01b0382166000908152600960205260408120819061169790611c4685611c52565b91509150836001600160a01b03167fdec2bacdd2f05b59de34da9b523dff8be42e5e38e818c82fdb0bae774387a72483836040516116df929190918252602082015260400190565b60405180910390a25050505050565b6000807f7fffffffffffffffffffffffffffffff5d576e7357a4501ddfe92f46681b20a083111561172557506000905060036117d2565b8460ff16601b1415801561173d57508460ff16601c14155b1561174e57506000905060046117d2565b6040805160008082526020820180845289905260ff881692820192909252606081018690526080810185905260019060a0016020604051602081039080840390855afa1580156117a2573d6000803e3d6000fd5b5050604051601f1901519150506001600160a01b0381166117cb576000600192509250506117d2565b9150600090505b94509492505050565b60008160048111156117ef576117ef6121fd565b036117f75750565b600181600481111561180b5761180b6121fd565b036118585760405162461bcd60e51b815260206004820152601860248201527f45434453413a20696e76616c6964207369676e61747572650000000000000000604482015260640161067e565b600281600481111561186c5761186c6121fd565b036118b95760405162461bcd60e51b815260206004820152601f60248201527f45434453413a20696e76616c6964207369676e6174757265206c656e67746800604482015260640161067e565b60038160048111156118cd576118cd6121fd565b036119255760405162461bcd60e51b815260206004820152602260248201527f45434453413a20696e76616c6964207369676e6174757265202773272076616c604482015261756560f01b606482015260840161067e565b6004816004811115611939576119396121fd565b0361076f5760405162461bcd60e51b815260206004820152602260248201527f45434453413a20696e76616c6964207369676e6174757265202776272076616c604482015261756560f01b606482015260840161067e565b6001600160a01b038381166000908152600860205260408082205485841683529120546105fe929182169116836115b1565b606060006119d2836002612213565b6119dd90600261212a565b67ffffffffffffffff8111156119f5576119f5612232565b6040519080825280601f01601f191660200182016040528015611a1f576020820181803683370190505b509050600360fc1b81600081518110611a3a57611a3a612150565b60200101906001600160f81b031916908160001a905350600f60fb1b81600181518110611a6957611a69612150565b60200101906001600160f81b031916908160001a9053506000611a8d846002612213565b611a9890600161212a565b90505b6001811115611b10576f181899199a1a9b1b9c1cb0b131b232b360811b85600f1660108110611acc57611acc612150565b1a60f81b828281518110611ae257611ae2612150565b60200101906001600160f81b031916908160001a90535060049490941c93611b0981612248565b9050611a9b565b50831561072a5760405162461bcd60e51b815260206004820181905260248201527f537472696e67733a20686578206c656e67746820696e73756666696369656e74604482015260640161067e565b6001600160a01b038216611bb55760405162461bcd60e51b815260206004820152601f60248201527f45524332303a206d696e7420746f20746865207a65726f206164647265737300604482015260640161067e565b8060026000828254611bc7919061212a565b90915550506001600160a01b03821660009081526020819052604081208054839290611bf490849061212a565b90915550506040518181526001600160a01b038316906000907fddf252ad1be2c89b69c2b068fc378daa952ba7f163c4a11628f55a4df523b3ef9060200160405180910390a36106916000838361149d565b600061072a828461212a565b825460009081908015611c9d5785611c6b60018361213d565b81548110611c7b57611c7b612150565b60009182526020909120015464010000000090046001600160e01b0316611ca0565b60005b6001600160e01b03169250611cb983858763ffffffff16565b9150600081118015611cf757504386611cd360018461213d565b81548110611ce357611ce3612150565b60009182526020909120015463ffffffff16145b15611d5757611d0582611dd7565b86611d1160018461213d565b81548110611d2157611d21612150565b9060005260206000200160000160046101000a8154816001600160e01b0302191690836001600160e01b03160217905550611dc2565b856040518060400160405280611d6c43611396565b63ffffffff168152602001611d8085611dd7565b6001600160e01b0390811690915282546001810184556000938452602093849020835194909301519091166401000000000263ffffffff909316929092179101555b50935093915050565b600061072a828461213d565b60006001600160e01b038211156113fb5760405162461bcd60e51b815260206004820152602760248201527f53616665436173743a2076616c756520646f65736e27742066697420696e20326044820152663234206269747360c81b606482015260840161067e565b600060208284031215611e5257600080fd5b81356001600160e01b03198116811461072a57600080fd5b60005b83811015611e85578181015183820152602001611e6d565b50506000910152565b6020815260008251806020840152611ead816040850160208701611e6a565b601f01601f19169190910160400192915050565b80356001600160a01b0381168114611ed857600080fd5b919050565b60008060408385031215611ef057600080fd5b611ef983611ec1565b946020939093013593505050565b600080600060608486031215611f1c57600080fd5b611f2584611ec1565b9250611f3360208501611ec1565b9150604084013590509250925092565b600060208284031215611f5557600080fd5b5035919050565b60008060408385031215611f6f57600080fd5b82359150611f7f60208401611ec1565b90509250929050565b600060208284031215611f9a57600080fd5b61072a82611ec1565b803560ff81168114611ed857600080fd5b60008060008060008060c08789031215611fcd57600080fd5b611fd687611ec1565b95506020870135945060408701359350611ff260608801611fa3565b92506080870135915060a087013590509295509295509295565b600080600080600080600060e0888a03121561202757600080fd5b61203088611ec1565b965061203e60208901611ec1565b9550604088013594506060880135935061205a60808901611fa3565b925060a0880135915060c0880135905092959891949750929550565b6000806040838503121561208957600080fd5b61209283611ec1565b9150611f7f60208401611ec1565b600080604083850312156120b357600080fd5b6120bc83611ec1565b9150602083013563ffffffff811681146120d557600080fd5b809150509250929050565b600181811c908216806120f457607f821691505b60208210810361149757634e487b7160e01b600052602260045260246000fd5b634e487b7160e01b600052601160045260246000fd5b8082018082111561050557610505612114565b8181038181111561050557610505612114565b634e487b7160e01b600052603260045260246000fd5b7f416363657373436f6e74726f6c3a206163636f756e742000000000000000000081526000835161219e816017850160208801611e6a565b7001034b99036b4b9b9b4b733903937b6329607d1b60179184019182015283516121cf816028840160208801611e6a565b01602801949350505050565b6000826121f857634e487b7160e01b600052601260045260246000fd5b500490565b634e487b7160e01b600052602160045260246000fd5b600081600019048311821515161561222d5761222d612114565b500290565b634e487b7160e01b600052604160045260246000fd5b60008161225757612257612114565b50600019019056fea2646970667358221220da3fae2eb38345efe94e502249579efcc3cda4ce182cff8175a0f3fe0b037a0164736f6c63430008100033",
    "sourcePath": "c:/Users/Nikos/Desktop/SolidityBootcamp/Encode-Solidity-Bootcamp-Weekend-Projects/weekend-project-4/tokenized-ballot/contracts/ERC20Votes.sol",
    "compiler": {
        "name": "solc",
        "version": "0.8.16+commit.07a7930e"
    },
    "functionHashes": {
        "DEFAULT_ADMIN_ROLE()": "a217fddf",
        "DOMAIN_SEPARATOR()": "3644e515",
        "MINTER_ROLE()": "d5391393",
        "allowance(address,address)": "dd62ed3e",
        "approve(address,uint256)": "095ea7b3",
        "balanceOf(address)": "70a08231",
        "checkpoints(address,uint32)": "f1127ed8",
        "decimals()": "313ce567",
        "decreaseAllowance(address,uint256)": "a457c2d7",
        "delegate(address)": "5c19a95c",
        "delegateBySig(address,uint256,uint256,uint8,bytes32,bytes32)": "c3cda520",
        "delegates(address)": "587cde1e",
        "getPastTotalSupply(uint256)": "8e539e8c",
        "getPastVotes(address,uint256)": "3a46b1a8",
        "getRoleAdmin(bytes32)": "248a9ca3",
        "getVotes(address)": "9ab24eb0",
        "grantRole(bytes32,address)": "2f2ff15d",
        "hasRole(bytes32,address)": "91d14854",
        "increaseAllowance(address,uint256)": "39509351",
        "mint(address,uint256)": "40c10f19",
        "name()": "06fdde03",
        "nonces(address)": "7ecebe00",
        "numCheckpoints(address)": "6fcfff45",
        "permit(address,address,uint256,uint256,uint8,bytes32,bytes32)": "d505accf",
        "renounceRole(bytes32,address)": "36568abe",
        "revokeRole(bytes32,address)": "d547741f",
        "supportsInterface(bytes4)": "01ffc9a7",
        "symbol()": "95d89b41",
        "totalSupply()": "18160ddd",
        "transfer(address,uint256)": "a9059cbb",
        "transferFrom(address,address,uint256)": "23b872dd"
    },
    "gasEstimates": {
        "creation": {
            "codeDepositCost": "1770600",
            "executionCost": "infinite",
            "totalCost": "infinite"
        },
        "external": {
            "DEFAULT_ADMIN_ROLE()": "306",
            "DOMAIN_SEPARATOR()": "infinite",
            "MINTER_ROLE()": "239",
            "allowance(address,address)": "infinite",
            "approve(address,uint256)": "24681",
            "balanceOf(address)": "2608",
            "checkpoints(address,uint32)": "5153",
            "decimals()": "223",
            "decreaseAllowance(address,uint256)": "26984",
            "delegate(address)": "infinite",
            "delegateBySig(address,uint256,uint256,uint8,bytes32,bytes32)": "infinite",
            "delegates(address)": "2656",
            "getPastTotalSupply(uint256)": "infinite",
            "getPastVotes(address,uint256)": "infinite",
            "getRoleAdmin(bytes32)": "2534",
            "getVotes(address)": "7176",
            "grantRole(bytes32,address)": "infinite",
            "hasRole(bytes32,address)": "2699",
            "increaseAllowance(address,uint256)": "27084",
            "mint(address,uint256)": "infinite",
            "name()": "infinite",
            "nonces(address)": "2661",
            "numCheckpoints(address)": "2716",
            "permit(address,address,uint256,uint256,uint8,bytes32,bytes32)": "infinite",
            "renounceRole(bytes32,address)": "29091",
            "revokeRole(bytes32,address)": "infinite",
            "supportsInterface(bytes4)": "473",
            "symbol()": "infinite",
            "totalSupply()": "2327",
            "transfer(address,uint256)": "infinite",
            "transferFrom(address,address,uint256)": "infinite"
        },
        "internal": {
            "_afterTokenTransfer(address,address,uint256)": "infinite",
            "_burn(address,uint256)": "infinite",
            "_mint(address,uint256)": "infinite"
        }
    }
}