{
    "contractName": "Payroll",
    "abi": [
        {
            "inputs": [
                {
                    "internalType": "string",
                    "name": "tokenName",
                    "type": "string"
                },
                {
                    "internalType": "string",
                    "name": "tokenSymbol",
                    "type": "string"
                },
                {
                    "internalType": "uint256",
                    "name": "initialCapital",
                    "type": "uint256"
                }
            ],
            "stateMutability": "nonpayable",
            "type": "constructor"
        },
        {
            "anonymous": false,
            "inputs": [
                {
                    "indexed": true,
                    "internalType": "address",
                    "name": "from",
                    "type": "address"
                },
                {
                    "indexed": false,
                    "internalType": "uint256",
                    "name": "amount",
                    "type": "uint256"
                },
                {
                    "indexed": false,
                    "internalType": "uint256",
                    "name": "timestamp",
                    "type": "uint256"
                }
            ],
            "name": "Fund",
            "type": "event"
        },
        {
            "anonymous": false,
            "inputs": [
                {
                    "indexed": true,
                    "internalType": "uint256",
                    "name": "id",
                    "type": "uint256"
                },
                {
                    "indexed": false,
                    "internalType": "address",
                    "name": "from",
                    "type": "address"
                },
                {
                    "indexed": false,
                    "internalType": "uint256",
                    "name": "timestamp",
                    "type": "uint256"
                }
            ],
            "name": "Paid",
            "type": "event"
        },
        {
            "stateMutability": "nonpayable",
            "type": "fallback"
        },
        {
            "inputs": [
                {
                    "internalType": "address",
                    "name": "employeeAddress",
                    "type": "address"
                },
                {
                    "internalType": "uint256",
                    "name": "salary",
                    "type": "uint256"
                }
            ],
            "name": "addEmployee",
            "outputs": [],
            "stateMutability": "nonpayable",
            "type": "function"
        },
        {
            "inputs": [],
            "name": "claim",
            "outputs": [],
            "stateMutability": "payable",
            "type": "function"
        },
        {
            "inputs": [],
            "name": "closeCompany",
            "outputs": [],
            "stateMutability": "nonpayable",
            "type": "function"
        },
        {
            "inputs": [],
            "name": "companyAcc",
            "outputs": [
                {
                    "internalType": "address",
                    "name": "",
                    "type": "address"
                }
            ],
            "stateMutability": "view",
            "type": "function"
        },
        {
            "inputs": [
                {
                    "internalType": "address",
                    "name": "",
                    "type": "address"
                }
            ],
            "name": "employeesAddress",
            "outputs": [
                {
                    "internalType": "uint256",
                    "name": "id",
                    "type": "uint256"
                },
                {
                    "internalType": "address",
                    "name": "paymentAddress",
                    "type": "address"
                },
                {
                    "internalType": "uint256",
                    "name": "salary",
                    "type": "uint256"
                },
                {
                    "internalType": "uint256",
                    "name": "timestamp",
                    "type": "uint256"
                },
                {
                    "internalType": "uint256",
                    "name": "paymentCount",
                    "type": "uint256"
                }
            ],
            "stateMutability": "view",
            "type": "function"
        },
        {
            "inputs": [
                {
                    "internalType": "uint256",
                    "name": "amount",
                    "type": "uint256"
                }
            ],
            "name": "fundCompanyAccount",
            "outputs": [],
            "stateMutability": "payable",
            "type": "function"
        },
        {
            "inputs": [
                {
                    "internalType": "address",
                    "name": "employeeAddress",
                    "type": "address"
                }
            ],
            "name": "getEmployee",
            "outputs": [
                {
                    "components": [
                        {
                            "internalType": "uint256",
                            "name": "id",
                            "type": "uint256"
                        },
                        {
                            "internalType": "address",
                            "name": "paymentAddress",
                            "type": "address"
                        },
                        {
                            "internalType": "uint256",
                            "name": "salary",
                            "type": "uint256"
                        },
                        {
                            "internalType": "uint256",
                            "name": "timestamp",
                            "type": "uint256"
                        },
                        {
                            "internalType": "uint256",
                            "name": "paymentCount",
                            "type": "uint256"
                        }
                    ],
                    "internalType": "struct Payroll.EmployeeStruct",
                    "name": "",
                    "type": "tuple"
                }
            ],
            "stateMutability": "view",
            "type": "function"
        },
        {
            "inputs": [],
            "name": "getEmployees",
            "outputs": [
                {
                    "components": [
                        {
                            "internalType": "uint256",
                            "name": "id",
                            "type": "uint256"
                        },
                        {
                            "internalType": "address",
                            "name": "paymentAddress",
                            "type": "address"
                        },
                        {
                            "internalType": "uint256",
                            "name": "salary",
                            "type": "uint256"
                        },
                        {
                            "internalType": "uint256",
                            "name": "timestamp",
                            "type": "uint256"
                        },
                        {
                            "internalType": "uint256",
                            "name": "paymentCount",
                            "type": "uint256"
                        }
                    ],
                    "internalType": "struct Payroll.EmployeeStruct[]",
                    "name": "",
                    "type": "tuple[]"
                }
            ],
            "stateMutability": "view",
            "type": "function"
        },
        {
            "inputs": [
                {
                    "internalType": "address",
                    "name": "",
                    "type": "address"
                }
            ],
            "name": "isEmployee",
            "outputs": [
                {
                    "internalType": "bool",
                    "name": "",
                    "type": "bool"
                }
            ],
            "stateMutability": "view",
            "type": "function"
        },
        {
            "inputs": [
                {
                    "internalType": "address",
                    "name": "employeeAddress",
                    "type": "address"
                }
            ],
            "name": "payAnEmployee",
            "outputs": [],
            "stateMutability": "payable",
            "type": "function"
        },
        {
            "inputs": [],
            "name": "paymentToken",
            "outputs": [
                {
                    "internalType": "contract PayrollToken",
                    "name": "",
                    "type": "address"
                }
            ],
            "stateMutability": "view",
            "type": "function"
        },
        {
            "inputs": [
                {
                    "internalType": "address",
                    "name": "employeeAddress",
                    "type": "address"
                }
            ],
            "name": "removeEmployee",
            "outputs": [],
            "stateMutability": "nonpayable",
            "type": "function"
        },
        {
            "inputs": [],
            "name": "tokenBalance",
            "outputs": [
                {
                    "internalType": "uint256",
                    "name": "",
                    "type": "uint256"
                }
            ],
            "stateMutability": "view",
            "type": "function"
        },
        {
            "inputs": [],
            "name": "totalEmployees",
            "outputs": [
                {
                    "internalType": "uint256",
                    "name": "",
                    "type": "uint256"
                }
            ],
            "stateMutability": "view",
            "type": "function"
        },
        {
            "inputs": [],
            "name": "totalPayments",
            "outputs": [
                {
                    "internalType": "uint256",
                    "name": "",
                    "type": "uint256"
                }
            ],
            "stateMutability": "view",
            "type": "function"
        },
        {
            "inputs": [],
            "name": "totalSalaries",
            "outputs": [
                {
                    "internalType": "uint256",
                    "name": "",
                    "type": "uint256"
                }
            ],
            "stateMutability": "view",
            "type": "function"
        },
        {
            "inputs": [
                {
                    "internalType": "address",
                    "name": "employeeAddress",
                    "type": "address"
                },
                {
                    "internalType": "uint256",
                    "name": "newSalary",
                    "type": "uint256"
                }
            ],
            "name": "updateEmployeeSalary",
            "outputs": [],
            "stateMutability": "nonpayable",
            "type": "function"
        },
        {
            "stateMutability": "payable",
            "type": "receive"
        }
    ],
    "bytecode": "60806040526000600255600060035560006004553480156200002057600080fd5b5060405162002853380380620028538339810160408190526200004391620001e6565b828260405162000053906200010b565b6200006092919062000287565b604051809103906000f0801580156200007d573d6000803e3d6000fd5b50600080546001600160a01b03929092166001600160a01b031992831681179091556001805490921633179091556040516340c10f1960e01b8152306004820152602481018390526340c10f1990604401600060405180830381600087803b158015620000e957600080fd5b505af1158015620000fe573d6000803e3d6000fd5b50505050505050620002b9565b6115dd806200127683390190565b634e487b7160e01b600052604160045260246000fd5b60005b838110156200014c57818101518382015260200162000132565b50506000910152565b600082601f8301126200016757600080fd5b81516001600160401b038082111562000184576200018462000119565b604051601f8301601f19908116603f01168101908282118183101715620001af57620001af62000119565b81604052838152866020858801011115620001c957600080fd5b620001dc8460208301602089016200012f565b9695505050505050565b600080600060608486031215620001fc57600080fd5b83516001600160401b03808211156200021457600080fd5b620002228783880162000155565b945060208601519150808211156200023957600080fd5b50620002488682870162000155565b925050604084015190509250925092565b60008151808452620002738160208601602086016200012f565b601f01601f19169290920160200192915050565b6040815260006200029c604083018562000259565b8281036020840152620002b0818562000259565b95945050505050565b610fad80620002c96000396000f3fe6080604052600436106101015760003560e01c80639cee7e8d11610095578063d36acc3911610064578063d36acc39146102db578063e7fd9a13146102fb578063ea66543f1461031b578063ec34ece81461035b578063ff0061a61461037b57610108565b80639cee7e8d1461027d5780639e1a4d1914610293578063c3c73ecd146102a8578063d108177a146102bb57610108565b806332648e09116100d157806332648e09146102105780634abefa361461023d5780634e71d92d1461025f57806352b9b9731461026757610108565b80625b448714610116578063068ffb311461013f5780633013ce2914610154578063315771261461018c57610108565b3661010857005b34801561011457600080fd5b005b34801561012257600080fd5b5061012c60045481565b6040519081526020015b60405180910390f35b34801561014b57600080fd5b5061011461038e565b34801561016057600080fd5b50600054610174906001600160a01b031681565b6040516001600160a01b039091168152602001610136565b34801561019857600080fd5b506101e06101a7366004610d7f565b6007602052600090815260409020805460018201546002830154600384015460049094015492936001600160a01b039092169290919085565b604080519586526001600160a01b039094166020860152928401919091526060830152608082015260a001610136565b34801561021c57600080fd5b5061023061022b366004610d7f565b610460565b6040516101369190610da1565b34801561024957600080fd5b506102526104f6565b6040516101369190610de1565b61011461058a565b34801561027357600080fd5b5061012c60025481565b34801561028957600080fd5b5061012c60035481565b34801561029f57600080fd5b5061012c61076e565b6101146102b6366004610d7f565b61080c565b3480156102c757600080fd5b506101146102d6366004610d7f565b610992565b3480156102e757600080fd5b50600154610174906001600160a01b031681565b34801561030757600080fd5b50610114610316366004610e60565b610a1a565b34801561032757600080fd5b5061034b610336366004610d7f565b60056020526000908152604090205460ff1681565b6040519015158152602001610136565b34801561036757600080fd5b50610114610376366004610e60565b610bb5565b610114610389366004610e8a565b610c4c565b6001546001600160a01b031633146103c15760405162461bcd60e51b81526004016103b890610ea3565b60405180910390fd5b6000546001546001600160a01b039182169163a9059cbb91166103e261076e565b6040516001600160e01b031960e085901b1681526001600160a01b03909216600483015260248201526044016020604051808303816000875af115801561042d573d6000803e3d6000fd5b505050506040513d601f19601f820116820180604052508101906104519190610ed0565b506001546001600160a01b0316ff5b61049b6040518060a001604052806000815260200160006001600160a01b031681526020016000815260200160008152602001600081525090565b506001600160a01b03908116600090815260076020908152604091829020825160a081018452815481526001820154909416918401919091526002810154918301919091526003810154606083015260040154608082015290565b60606006805480602002602001604051908101604052809291908181526020016000905b828210156105815760008481526020908190206040805160a08101825260058602909201805483526001808201546001600160a01b03168486015260028201549284019290925260038101546060840152600401546080830152908352909201910161051a565b50505050905090565b6000546040516370a0823160e01b81523060048201526001600160a01b03909116906370a0823190602401602060405180830381865afa1580156105d2573d6000803e3d6000fd5b505050506040513d601f19601f820116820180604052508101906105f69190610ef2565b60035411156106595760405162461bcd60e51b815260206004820152602960248201527f496e73756666696369656e742062616c616e636520746f2070617920616c6c20604482015268656d706c6f7965657360b81b60648201526084016103b8565b3360009081526005602052604090205460ff1615156001146106bd5760405162461bcd60e51b815260206004820152601760248201527f596f7520617265206e6f7420616e20656d706c6f79656500000000000000000060448201526064016103b8565b33600090815260076020526040902060028101546001909101546106ea906001600160a01b031682610ce7565b33600090815260076020526040812060040180549161070883610f21565b90915550506004805490600061071d83610f21565b9091555050600454600154604080516001600160a01b0390921682524260208301527f4f2d18324ee95128de091ed2adc501295479000ce4c2cec607aeb1b67e189e2f91015b60405180910390a250565b6001546000906001600160a01b0316331461079b5760405162461bcd60e51b81526004016103b890610ea3565b6000546040516370a0823160e01b81523060048201526001600160a01b03909116906370a0823190602401602060405180830381865afa1580156107e3573d6000803e3d6000fd5b505050506040513d601f19601f820116820180604052508101906108079190610ef2565b905090565b6001546001600160a01b031633146108365760405162461bcd60e51b81526004016103b890610ea3565b61083e61076e565b6001600160a01b03821660009081526007602052604090206002015411156108b85760405162461bcd60e51b815260206004820152602760248201527f496e73756666696369656e742062616c616e636520746f2070617920616e20656044820152666d706c6f79656560c81b60648201526084016103b8565b6001600160a01b03811660009081526005602052604090205460ff1615156001146109395760405162461bcd60e51b815260206004820152602b60248201527f54686973206164647265737320646f6573206e6f742062656c6f6e6720746f2060448201526a616e20656d706c6f79656560a81b60648201526084016103b8565b6001600160a01b038082166000908152600760205260409020600181015460029091015461096b929190911690610ce7565b6001600160a01b038116600090815260076020526040812060040180549161071d83610f21565b6001546001600160a01b031633146109bc5760405162461bcd60e51b81526004016103b890610ea3565b6001600160a01b0381166000908152600560209081526040808320805460ff19169055600790915281206002015460038054919290916109fd908490610f3a565b909155505060028054906000610a1283610f4d565b919050555050565b6001546001600160a01b03163314610a445760405162461bcd60e51b81526004016103b890610ea3565b60008111610a8d5760405162461bcd60e51b815260206004820152601660248201527553616c6172792063616e6e6f74206265207a65726f2160501b60448201526064016103b8565b6001600160a01b03821660009081526005602052604090205460ff1615610af65760405162461bcd60e51b815260206004820152601c60248201527f456d706c6f79656520616c726561647920696e20706179726f6c6c210000000060448201526064016103b8565b60028054906000610b0683610f21565b91905055508060036000828254610b1d9190610f64565b90915550506001600160a01b0391821660008181526005602090815260408083208054600160ff199091168117909155815160a08101835260028054825281850187815282850198895242606084019081526080840188815298885260079096529390952090518155915190820180546001600160a01b03191691909716179095559251908401559051600383015551600490910155565b6001546001600160a01b03163314610bdf5760405162461bcd60e51b81526004016103b890610ea3565b6001600160a01b0382166000908152600760205260408120600201546003805491929091610c0e908490610f3a565b90915550506001600160a01b038216600090815260076020526040812060020182905560038054839290610c43908490610f64565b90915550505050565b6000546040516340c10f1960e01b8152306004820152602481018390526001600160a01b03909116906340c10f1990604401600060405180830381600087803b158015610c9857600080fd5b505af1158015610cac573d6000803e3d6000fd5b5050604080518481524260208201523393507fd5321498ebef1d048889992d8457d0f50576d300db1fd93488480c1f57a65601925001610763565b60005460405163a9059cbb60e01b81526001600160a01b038481166004830152602482018490529091169063a9059cbb906044016020604051808303816000875af1158015610d3a573d6000803e3d6000fd5b505050506040513d601f19601f82011682018060405250810190610d5e9190610ed0565b505050565b80356001600160a01b0381168114610d7a57600080fd5b919050565b600060208284031215610d9157600080fd5b610d9a82610d63565b9392505050565b815181526020808301516001600160a01b03169082015260408083015190820152606080830151908201526080808301519082015260a081015b92915050565b6020808252825182820181905260009190848201906040850190845b81811015610e5457610e41838551805182526020808201516001600160a01b0316908301526040808201519083015260608082015190830152608090810151910152565b9284019260a09290920191600101610dfd565b50909695505050505050565b60008060408385031215610e7357600080fd5b610e7c83610d63565b946020939093013593505050565b600060208284031215610e9c57600080fd5b5035919050565b6020808252601390820152724f776e6572207265736572766564206f6e6c7960681b604082015260600190565b600060208284031215610ee257600080fd5b81518015158114610d9a57600080fd5b600060208284031215610f0457600080fd5b5051919050565b634e487b7160e01b600052601160045260246000fd5b600060018201610f3357610f33610f0b565b5060010190565b81810381811115610ddb57610ddb610f0b565b600081610f5c57610f5c610f0b565b506000190190565b80820180821115610ddb57610ddb610f0b56fea26469706673582212202c10bb5f6583b09f55365805e45106fd9cd286a99abb34f5743d24134f36070664736f6c6343000810003360806040523480156200001157600080fd5b50604051620015dd380380620015dd833981016040819052620000349162000203565b81816003620000448382620002fc565b506004620000538282620002fc565b50620000659150600090503362000099565b620000917f9f2df0fed2c77648de5860a4cc508cd0818c85b8b8a1ab4ceeef8d981c8956a63362000099565b5050620003c8565b60008281526005602090815260408083206001600160a01b038516845290915290205460ff166200013a5760008281526005602090815260408083206001600160a01b03851684529091529020805460ff19166001179055620000f93390565b6001600160a01b0316816001600160a01b0316837f2f8788117e7eff1d82e926ec794901d17c78024a50270940304540a733656f0d60405160405180910390a45b5050565b634e487b7160e01b600052604160045260246000fd5b600082601f8301126200016657600080fd5b81516001600160401b03808211156200018357620001836200013e565b604051601f8301601f19908116603f01168101908282118183101715620001ae57620001ae6200013e565b81604052838152602092508683858801011115620001cb57600080fd5b600091505b83821015620001ef5785820183015181830184015290820190620001d0565b600093810190920192909252949350505050565b600080604083850312156200021757600080fd5b82516001600160401b03808211156200022f57600080fd5b6200023d8683870162000154565b935060208501519150808211156200025457600080fd5b50620002638582860162000154565b9150509250929050565b600181811c908216806200028257607f821691505b602082108103620002a357634e487b7160e01b600052602260045260246000fd5b50919050565b601f821115620002f757600081815260208120601f850160051c81016020861015620002d25750805b601f850160051c820191505b81811015620002f357828155600101620002de565b5050505b505050565b81516001600160401b038111156200031857620003186200013e565b62000330816200032984546200026d565b84620002a9565b602080601f8311600181146200036857600084156200034f5750858301515b600019600386901b1c1916600185901b178555620002f3565b600085815260208120601f198616915b82811015620003995788860151825594840194600190910190840162000378565b5085821015620003b85787850151600019600388901b60f8161c191681555b5050505050600190811b01905550565b61120580620003d86000396000f3fe608060405234801561001057600080fd5b50600436106101425760003560e01c806342966c68116100b8578063a217fddf1161007c578063a217fddf146102a6578063a457c2d7146102ae578063a9059cbb146102c1578063d5391393146102d4578063d547741f146102fb578063dd62ed3e1461030e57600080fd5b806342966c681461023c57806370a082311461024f57806379cc67901461027857806391d148541461028b57806395d89b411461029e57600080fd5b8063248a9ca31161010a578063248a9ca3146101bc5780632f2ff15d146101df578063313ce567146101f457806336568abe14610203578063395093511461021657806340c10f191461022957600080fd5b806301ffc9a71461014757806306fdde031461016f578063095ea7b31461018457806318160ddd1461019757806323b872dd146101a9575b600080fd5b61015a610155366004610ef5565b610321565b60405190151581526020015b60405180910390f35b610177610358565b6040516101669190610f43565b61015a610192366004610f92565b6103ea565b6002545b604051908152602001610166565b61015a6101b7366004610fbc565b610402565b61019b6101ca366004610ff8565b60009081526005602052604090206001015490565b6101f26101ed366004611011565b610426565b005b60405160128152602001610166565b6101f2610211366004611011565b610450565b61015a610224366004610f92565b6104d3565b6101f2610237366004610f92565b6104f5565b6101f261024a366004610ff8565b610529565b61019b61025d36600461103d565b6001600160a01b031660009081526020819052604090205490565b6101f2610286366004610f92565b610536565b61015a610299366004611011565b61054b565b610177610576565b61019b600081565b61015a6102bc366004610f92565b610585565b61015a6102cf366004610f92565b610600565b61019b7f9f2df0fed2c77648de5860a4cc508cd0818c85b8b8a1ab4ceeef8d981c8956a681565b6101f2610309366004611011565b61060e565b61019b61031c366004611058565b610633565b60006001600160e01b03198216637965db0b60e01b148061035257506301ffc9a760e01b6001600160e01b03198316145b92915050565b60606003805461036790611082565b80601f016020809104026020016040519081016040528092919081815260200182805461039390611082565b80156103e05780601f106103b5576101008083540402835291602001916103e0565b820191906000526020600020905b8154815290600101906020018083116103c357829003601f168201915b5050505050905090565b6000336103f881858561065e565b5060019392505050565b600033610410858285610782565b61041b8585856107fc565b506001949350505050565b600082815260056020526040902060010154610441816109ca565b61044b83836109d4565b505050565b6001600160a01b03811633146104c55760405162461bcd60e51b815260206004820152602f60248201527f416363657373436f6e74726f6c3a2063616e206f6e6c792072656e6f756e636560448201526e103937b632b9903337b91039b2b63360891b60648201526084015b60405180910390fd5b6104cf8282610a5a565b5050565b6000336103f88185856104e68383610633565b6104f091906110d2565b61065e565b7f9f2df0fed2c77648de5860a4cc508cd0818c85b8b8a1ab4ceeef8d981c8956a661051f816109ca565b61044b8383610ac1565b6105333382610ba0565b50565b610541823383610782565b6104cf8282610ba0565b60009182526005602090815260408084206001600160a01b0393909316845291905290205460ff1690565b60606004805461036790611082565b600033816105938286610633565b9050838110156105f35760405162461bcd60e51b815260206004820152602560248201527f45524332303a2064656372656173656420616c6c6f77616e63652062656c6f77604482015264207a65726f60d81b60648201526084016104bc565b61041b828686840361065e565b6000336103f88185856107fc565b600082815260056020526040902060010154610629816109ca565b61044b8383610a5a565b6001600160a01b03918216600090815260016020908152604080832093909416825291909152205490565b6001600160a01b0383166106c05760405162461bcd60e51b8152602060048201526024808201527f45524332303a20617070726f76652066726f6d20746865207a65726f206164646044820152637265737360e01b60648201526084016104bc565b6001600160a01b0382166107215760405162461bcd60e51b815260206004820152602260248201527f45524332303a20617070726f766520746f20746865207a65726f206164647265604482015261737360f01b60648201526084016104bc565b6001600160a01b0383811660008181526001602090815260408083209487168084529482529182902085905590518481527f8c5be1e5ebec7d5bd14f71427d1e84f3dd0314c0f7b2291e5b200ac8c7c3b925910160405180910390a3505050565b600061078e8484610633565b905060001981146107f657818110156107e95760405162461bcd60e51b815260206004820152601d60248201527f45524332303a20696e73756666696369656e7420616c6c6f77616e636500000060448201526064016104bc565b6107f6848484840361065e565b50505050565b6001600160a01b0383166108605760405162461bcd60e51b815260206004820152602560248201527f45524332303a207472616e736665722066726f6d20746865207a65726f206164604482015264647265737360d81b60648201526084016104bc565b6001600160a01b0382166108c25760405162461bcd60e51b815260206004820152602360248201527f45524332303a207472616e7366657220746f20746865207a65726f206164647260448201526265737360e81b60648201526084016104bc565b6001600160a01b0383166000908152602081905260409020548181101561093a5760405162461bcd60e51b815260206004820152602660248201527f45524332303a207472616e7366657220616d6f756e7420657863656564732062604482015265616c616e636560d01b60648201526084016104bc565b6001600160a01b038085166000908152602081905260408082208585039055918516815290812080548492906109719084906110d2565b92505081905550826001600160a01b0316846001600160a01b03167fddf252ad1be2c89b69c2b068fc378daa952ba7f163c4a11628f55a4df523b3ef846040516109bd91815260200190565b60405180910390a36107f6565b6105338133610cee565b6109de828261054b565b6104cf5760008281526005602090815260408083206001600160a01b03851684529091529020805460ff19166001179055610a163390565b6001600160a01b0316816001600160a01b0316837f2f8788117e7eff1d82e926ec794901d17c78024a50270940304540a733656f0d60405160405180910390a45050565b610a64828261054b565b156104cf5760008281526005602090815260408083206001600160a01b0385168085529252808320805460ff1916905551339285917ff6391f5c32d9c69d2a47ea670b442974b53935d1edc7fd64eb21e047a839171b9190a45050565b6001600160a01b038216610b175760405162461bcd60e51b815260206004820152601f60248201527f45524332303a206d696e7420746f20746865207a65726f20616464726573730060448201526064016104bc565b8060026000828254610b2991906110d2565b90915550506001600160a01b03821660009081526020819052604081208054839290610b569084906110d2565b90915550506040518181526001600160a01b038316906000907fddf252ad1be2c89b69c2b068fc378daa952ba7f163c4a11628f55a4df523b3ef9060200160405180910390a35050565b6001600160a01b038216610c005760405162461bcd60e51b815260206004820152602160248201527f45524332303a206275726e2066726f6d20746865207a65726f206164647265736044820152607360f81b60648201526084016104bc565b6001600160a01b03821660009081526020819052604090205481811015610c745760405162461bcd60e51b815260206004820152602260248201527f45524332303a206275726e20616d6f756e7420657863656564732062616c616e604482015261636560f01b60648201526084016104bc565b6001600160a01b0383166000908152602081905260408120838303905560028054849290610ca39084906110e5565b90915550506040518281526000906001600160a01b038516907fddf252ad1be2c89b69c2b068fc378daa952ba7f163c4a11628f55a4df523b3ef9060200160405180910390a3505050565b610cf8828261054b565b6104cf57610d10816001600160a01b03166014610d52565b610d1b836020610d52565b604051602001610d2c9291906110f8565b60408051601f198184030181529082905262461bcd60e51b82526104bc91600401610f43565b60606000610d6183600261116d565b610d6c9060026110d2565b67ffffffffffffffff811115610d8457610d8461118c565b6040519080825280601f01601f191660200182016040528015610dae576020820181803683370190505b509050600360fc1b81600081518110610dc957610dc96111a2565b60200101906001600160f81b031916908160001a905350600f60fb1b81600181518110610df857610df86111a2565b60200101906001600160f81b031916908160001a9053506000610e1c84600261116d565b610e279060016110d2565b90505b6001811115610e9f576f181899199a1a9b1b9c1cb0b131b232b360811b85600f1660108110610e5b57610e5b6111a2565b1a60f81b828281518110610e7157610e716111a2565b60200101906001600160f81b031916908160001a90535060049490941c93610e98816111b8565b9050610e2a565b508315610eee5760405162461bcd60e51b815260206004820181905260248201527f537472696e67733a20686578206c656e67746820696e73756666696369656e7460448201526064016104bc565b9392505050565b600060208284031215610f0757600080fd5b81356001600160e01b031981168114610eee57600080fd5b60005b83811015610f3a578181015183820152602001610f22565b50506000910152565b6020815260008251806020840152610f62816040850160208701610f1f565b601f01601f19169190910160400192915050565b80356001600160a01b0381168114610f8d57600080fd5b919050565b60008060408385031215610fa557600080fd5b610fae83610f76565b946020939093013593505050565b600080600060608486031215610fd157600080fd5b610fda84610f76565b9250610fe860208501610f76565b9150604084013590509250925092565b60006020828403121561100a57600080fd5b5035919050565b6000806040838503121561102457600080fd5b8235915061103460208401610f76565b90509250929050565b60006020828403121561104f57600080fd5b610eee82610f76565b6000806040838503121561106b57600080fd5b61107483610f76565b915061103460208401610f76565b600181811c9082168061109657607f821691505b6020821081036110b657634e487b7160e01b600052602260045260246000fd5b50919050565b634e487b7160e01b600052601160045260246000fd5b80820180821115610352576103526110bc565b81810381811115610352576103526110bc565b7f416363657373436f6e74726f6c3a206163636f756e7420000000000000000000815260008351611130816017850160208801610f1f565b7001034b99036b4b9b9b4b733903937b6329607d1b6017918401918201528351611161816028840160208801610f1f565b01602801949350505050565b6000816000190483118215151615611187576111876110bc565b500290565b634e487b7160e01b600052604160045260246000fd5b634e487b7160e01b600052603260045260246000fd5b6000816111c7576111c76110bc565b50600019019056fea264697066735822122034d7f86bb6a6b7840e451aa25dae7a3e7e0b69e10cf3494575b1a50fa0a3074164736f6c63430008100033",
    "sourcePath": "c:/Users/Nikos/Desktop/SolidityBootcamp/Encode-Solidity-Bootcamp-Weekend-Projects/team-project/payroll-tests/contracts/Payroll.sol",
    "compiler": {
        "name": "solc",
        "version": "0.8.16+commit.07a7930e"
    },
    "functionHashes": {
        "addEmployee(address,uint256)": "e7fd9a13",
        "claim()": "4e71d92d",
        "closeCompany()": "068ffb31",
        "companyAcc()": "d36acc39",
        "employeesAddress(address)": "31577126",
        "fundCompanyAccount(uint256)": "ff0061a6",
        "getEmployee(address)": "32648e09",
        "getEmployees()": "4abefa36",
        "isEmployee(address)": "ea66543f",
        "payAnEmployee(address)": "c3c73ecd",
        "paymentToken()": "3013ce29",
        "removeEmployee(address)": "d108177a",
        "tokenBalance()": "9e1a4d19",
        "totalEmployees()": "52b9b973",
        "totalPayments()": "005b4487",
        "totalSalaries()": "9cee7e8d",
        "updateEmployeeSalary(address,uint256)": "ec34ece8"
    },
    "gasEstimates": {
        "creation": {
            "codeDepositCost": "802600",
            "executionCost": "infinite",
            "totalCost": "infinite"
        },
        "external": {
            "": "224",
            "addEmployee(address,uint256)": "175575",
            "claim()": "infinite",
            "closeCompany()": "infinite",
            "companyAcc()": "2359",
            "employeesAddress(address)": "11189",
            "fundCompanyAccount(uint256)": "infinite",
            "getEmployee(address)": "11461",
            "getEmployees()": "infinite",
            "isEmployee(address)": "2597",
            "payAnEmployee(address)": "infinite",
            "paymentToken()": "2405",
            "removeEmployee(address)": "77599",
            "tokenBalance()": "infinite",
            "totalEmployees()": "2373",
            "totalPayments()": "2308",
            "totalSalaries()": "2307",
            "updateEmployeeSalary(address,uint256)": "infinite"
        },
        "internal": {
            "payTo(address,uint256)": "infinite"
        }
    }
}